{
  "_format": "hh-sol-artifact-1",
  "contractName": "ERC721HWithRoyaltyMetaTx",
  "sourceName": "src/v2/contracts/ERC721HWithRoyaltyMetaTx.sol",
  "abi": [
    {
      "inputs": [
        {
          "internalType": "string",
          "name": "name",
          "type": "string"
        },
        {
          "internalType": "string",
          "name": "symbol",
          "type": "string"
        },
        {
          "internalType": "string",
          "name": "baseTokenURI",
          "type": "string"
        },
        {
          "internalType": "address",
          "name": "adminAddress",
          "type": "address"
        },
        {
          "internalType": "contract MinimalForwarder",
          "name": "forwarder",
          "type": "address"
        }
      ],
      "stateMutability": "nonpayable",
      "type": "constructor"
    },
    {
      "inputs": [],
      "name": "ApprovalCallerNotOwnerNorApproved",
      "type": "error"
    },
    {
      "inputs": [],
      "name": "ApprovalQueryForNonexistentToken",
      "type": "error"
    },
    {
      "inputs": [],
      "name": "ApprovalToCurrentOwner",
      "type": "error"
    },
    {
      "inputs": [],
      "name": "ApproveToCaller",
      "type": "error"
    },
    {
      "inputs": [],
      "name": "BalanceQueryForZeroAddress",
      "type": "error"
    },
    {
      "inputs": [],
      "name": "MintBySenderWithNoMinterRole",
      "type": "error"
    },
    {
      "inputs": [],
      "name": "MintToZeroAddress",
      "type": "error"
    },
    {
      "inputs": [],
      "name": "MintZeroQuantity",
      "type": "error"
    },
    {
      "inputs": [],
      "name": "OwnerIndexOutOfBounds",
      "type": "error"
    },
    {
      "inputs": [],
      "name": "OwnerQueryForNonexistentToken",
      "type": "error"
    },
    {
      "inputs": [],
      "name": "PauseBySenderWithNoPauserRole",
      "type": "error"
    },
    {
      "inputs": [],
      "name": "RoyaltySetBySenderWithNoMinterRole",
      "type": "error"
    },
    {
      "inputs": [],
      "name": "RoyaltySetOfNonexistentToken",
      "type": "error"
    },
    {
      "inputs": [],
      "name": "TokenIndexOutOfBounds",
      "type": "error"
    },
    {
      "inputs": [],
      "name": "TokenTransferWhilePaused",
      "type": "error"
    },
    {
      "inputs": [],
      "name": "TransferCallerNotOwnerNorApproved",
      "type": "error"
    },
    {
      "inputs": [],
      "name": "TransferFromIncorrectOwner",
      "type": "error"
    },
    {
      "inputs": [],
      "name": "TransferToNonERC721ReceiverImplementer",
      "type": "error"
    },
    {
      "inputs": [],
      "name": "TransferToZeroAddress",
      "type": "error"
    },
    {
      "inputs": [],
      "name": "URIQueryForNonexistentToken",
      "type": "error"
    },
    {
      "inputs": [],
      "name": "URISetOfNonexistentToken",
      "type": "error"
    },
    {
      "inputs": [],
      "name": "UnpauseBySenderWithNoPauserRole",
      "type": "error"
    },
    {
      "anonymous": false,
      "inputs": [
        {
          "indexed": true,
          "internalType": "address",
          "name": "owner",
          "type": "address"
        },
        {
          "indexed": true,
          "internalType": "address",
          "name": "approved",
          "type": "address"
        },
        {
          "indexed": true,
          "internalType": "uint256",
          "name": "tokenId",
          "type": "uint256"
        }
      ],
      "name": "Approval",
      "type": "event"
    },
    {
      "anonymous": false,
      "inputs": [
        {
          "indexed": true,
          "internalType": "address",
          "name": "owner",
          "type": "address"
        },
        {
          "indexed": true,
          "internalType": "address",
          "name": "operator",
          "type": "address"
        },
        {
          "indexed": false,
          "internalType": "bool",
          "name": "approved",
          "type": "bool"
        }
      ],
      "name": "ApprovalForAll",
      "type": "event"
    },
    {
      "anonymous": false,
      "inputs": [
        {
          "indexed": false,
          "internalType": "address",
          "name": "account",
          "type": "address"
        }
      ],
      "name": "Paused",
      "type": "event"
    },
    {
      "anonymous": false,
      "inputs": [
        {
          "indexed": true,
          "internalType": "bytes32",
          "name": "role",
          "type": "bytes32"
        },
        {
          "indexed": true,
          "internalType": "bytes32",
          "name": "previousAdminRole",
          "type": "bytes32"
        },
        {
          "indexed": true,
          "internalType": "bytes32",
          "name": "newAdminRole",
          "type": "bytes32"
        }
      ],
      "name": "RoleAdminChanged",
      "type": "event"
    },
    {
      "anonymous": false,
      "inputs": [
        {
          "indexed": true,
          "internalType": "bytes32",
          "name": "role",
          "type": "bytes32"
        },
        {
          "indexed": true,
          "internalType": "address",
          "name": "account",
          "type": "address"
        },
        {
          "indexed": true,
          "internalType": "address",
          "name": "sender",
          "type": "address"
        }
      ],
      "name": "RoleGranted",
      "type": "event"
    },
    {
      "anonymous": false,
      "inputs": [
        {
          "indexed": true,
          "internalType": "bytes32",
          "name": "role",
          "type": "bytes32"
        },
        {
          "indexed": true,
          "internalType": "address",
          "name": "account",
          "type": "address"
        },
        {
          "indexed": true,
          "internalType": "address",
          "name": "sender",
          "type": "address"
        }
      ],
      "name": "RoleRevoked",
      "type": "event"
    },
    {
      "anonymous": false,
      "inputs": [
        {
          "indexed": true,
          "internalType": "address",
          "name": "from",
          "type": "address"
        },
        {
          "indexed": true,
          "internalType": "address",
          "name": "to",
          "type": "address"
        },
        {
          "indexed": true,
          "internalType": "uint256",
          "name": "tokenId",
          "type": "uint256"
        }
      ],
      "name": "Transfer",
      "type": "event"
    },
    {
      "anonymous": false,
      "inputs": [
        {
          "indexed": false,
          "internalType": "address",
          "name": "account",
          "type": "address"
        }
      ],
      "name": "Unpaused",
      "type": "event"
    },
    {
      "inputs": [],
      "name": "DEFAULT_ADMIN_ROLE",
      "outputs": [
        {
          "internalType": "bytes32",
          "name": "",
          "type": "bytes32"
        }
      ],
      "stateMutability": "view",
      "type": "function"
    },
    {
      "inputs": [],
      "name": "MINTER_ROLE",
      "outputs": [
        {
          "internalType": "bytes32",
          "name": "",
          "type": "bytes32"
        }
      ],
      "stateMutability": "view",
      "type": "function"
    },
    {
      "inputs": [],
      "name": "PAUSER_ROLE",
      "outputs": [
        {
          "internalType": "bytes32",
          "name": "",
          "type": "bytes32"
        }
      ],
      "stateMutability": "view",
      "type": "function"
    },
    {
      "inputs": [
        {
          "internalType": "address",
          "name": "to",
          "type": "address"
        },
        {
          "internalType": "uint256",
          "name": "tokenId",
          "type": "uint256"
        }
      ],
      "name": "approve",
      "outputs": [],
      "stateMutability": "nonpayable",
      "type": "function"
    },
    {
      "inputs": [
        {
          "internalType": "address",
          "name": "owner",
          "type": "address"
        }
      ],
      "name": "balanceOf",
      "outputs": [
        {
          "internalType": "uint256",
          "name": "",
          "type": "uint256"
        }
      ],
      "stateMutability": "view",
      "type": "function"
    },
    {
      "inputs": [
        {
          "internalType": "uint256",
          "name": "tokenId",
          "type": "uint256"
        }
      ],
      "name": "burn",
      "outputs": [],
      "stateMutability": "nonpayable",
      "type": "function"
    },
    {
      "inputs": [
        {
          "internalType": "uint256",
          "name": "tokenId",
          "type": "uint256"
        }
      ],
      "name": "getApproved",
      "outputs": [
        {
          "internalType": "address",
          "name": "",
          "type": "address"
        }
      ],
      "stateMutability": "view",
      "type": "function"
    },
    {
      "inputs": [
        {
          "internalType": "bytes32",
          "name": "role",
          "type": "bytes32"
        }
      ],
      "name": "getRoleAdmin",
      "outputs": [
        {
          "internalType": "bytes32",
          "name": "",
          "type": "bytes32"
        }
      ],
      "stateMutability": "view",
      "type": "function"
    },
    {
      "inputs": [
        {
          "internalType": "bytes32",
          "name": "role",
          "type": "bytes32"
        },
        {
          "internalType": "uint256",
          "name": "index",
          "type": "uint256"
        }
      ],
      "name": "getRoleMember",
      "outputs": [
        {
          "internalType": "address",
          "name": "",
          "type": "address"
        }
      ],
      "stateMutability": "view",
      "type": "function"
    },
    {
      "inputs": [
        {
          "internalType": "bytes32",
          "name": "role",
          "type": "bytes32"
        }
      ],
      "name": "getRoleMemberCount",
      "outputs": [
        {
          "internalType": "uint256",
          "name": "",
          "type": "uint256"
        }
      ],
      "stateMutability": "view",
      "type": "function"
    },
    {
      "inputs": [
        {
          "internalType": "bytes32",
          "name": "role",
          "type": "bytes32"
        },
        {
          "internalType": "address",
          "name": "account",
          "type": "address"
        }
      ],
      "name": "grantRole",
      "outputs": [],
      "stateMutability": "nonpayable",
      "type": "function"
    },
    {
      "inputs": [
        {
          "internalType": "bytes32",
          "name": "role",
          "type": "bytes32"
        },
        {
          "internalType": "address",
          "name": "account",
          "type": "address"
        }
      ],
      "name": "hasRole",
      "outputs": [
        {
          "internalType": "bool",
          "name": "",
          "type": "bool"
        }
      ],
      "stateMutability": "view",
      "type": "function"
    },
    {
      "inputs": [
        {
          "internalType": "address",
          "name": "owner",
          "type": "address"
        },
        {
          "internalType": "address",
          "name": "operator",
          "type": "address"
        }
      ],
      "name": "isApprovedForAll",
      "outputs": [
        {
          "internalType": "bool",
          "name": "",
          "type": "bool"
        }
      ],
      "stateMutability": "view",
      "type": "function"
    },
    {
      "inputs": [
        {
          "internalType": "address",
          "name": "forwarder",
          "type": "address"
        }
      ],
      "name": "isTrustedForwarder",
      "outputs": [
        {
          "internalType": "bool",
          "name": "",
          "type": "bool"
        }
      ],
      "stateMutability": "view",
      "type": "function"
    },
    {
      "inputs": [
        {
          "components": [
            {
              "internalType": "address",
              "name": "to",
              "type": "address"
            },
            {
              "internalType": "string",
              "name": "tokenURI",
              "type": "string"
            }
          ],
          "internalType": "struct ERC721HWithRoyalty.MintRequest[]",
          "name": "reqs",
          "type": "tuple[]"
        }
      ],
      "name": "mint",
      "outputs": [
        {
          "internalType": "uint256",
          "name": "",
          "type": "uint256"
        }
      ],
      "stateMutability": "nonpayable",
      "type": "function"
    },
    {
      "inputs": [],
      "name": "name",
      "outputs": [
        {
          "internalType": "string",
          "name": "",
          "type": "string"
        }
      ],
      "stateMutability": "view",
      "type": "function"
    },
    {
      "inputs": [
        {
          "internalType": "uint256",
          "name": "tokenId",
          "type": "uint256"
        }
      ],
      "name": "ownerOf",
      "outputs": [
        {
          "internalType": "address",
          "name": "",
          "type": "address"
        }
      ],
      "stateMutability": "view",
      "type": "function"
    },
    {
      "inputs": [],
      "name": "pause",
      "outputs": [],
      "stateMutability": "nonpayable",
      "type": "function"
    },
    {
      "inputs": [],
      "name": "paused",
      "outputs": [
        {
          "internalType": "bool",
          "name": "",
          "type": "bool"
        }
      ],
      "stateMutability": "view",
      "type": "function"
    },
    {
      "inputs": [
        {
          "internalType": "bytes32",
          "name": "role",
          "type": "bytes32"
        },
        {
          "internalType": "address",
          "name": "account",
          "type": "address"
        }
      ],
      "name": "renounceRole",
      "outputs": [],
      "stateMutability": "nonpayable",
      "type": "function"
    },
    {
      "inputs": [
        {
          "internalType": "bytes32",
          "name": "role",
          "type": "bytes32"
        },
        {
          "internalType": "address",
          "name": "account",
          "type": "address"
        }
      ],
      "name": "revokeRole",
      "outputs": [],
      "stateMutability": "nonpayable",
      "type": "function"
    },
    {
      "inputs": [
        {
          "internalType": "uint256",
          "name": "tokenId",
          "type": "uint256"
        },
        {
          "internalType": "uint256",
          "name": "salePrice",
          "type": "uint256"
        }
      ],
      "name": "royaltyInfo",
      "outputs": [
        {
          "internalType": "address",
          "name": "receiver",
          "type": "address"
        },
        {
          "internalType": "uint256",
          "name": "royaltyAmount",
          "type": "uint256"
        }
      ],
      "stateMutability": "view",
      "type": "function"
    },
    {
      "inputs": [
        {
          "internalType": "address",
          "name": "from",
          "type": "address"
        },
        {
          "internalType": "address",
          "name": "to",
          "type": "address"
        },
        {
          "internalType": "uint256",
          "name": "tokenId",
          "type": "uint256"
        }
      ],
      "name": "safeTransferFrom",
      "outputs": [],
      "stateMutability": "nonpayable",
      "type": "function"
    },
    {
      "inputs": [
        {
          "internalType": "address",
          "name": "from",
          "type": "address"
        },
        {
          "internalType": "address",
          "name": "to",
          "type": "address"
        },
        {
          "internalType": "uint256",
          "name": "tokenId",
          "type": "uint256"
        },
        {
          "internalType": "bytes",
          "name": "_data",
          "type": "bytes"
        }
      ],
      "name": "safeTransferFrom",
      "outputs": [],
      "stateMutability": "nonpayable",
      "type": "function"
    },
    {
      "inputs": [
        {
          "internalType": "address",
          "name": "operator",
          "type": "address"
        },
        {
          "internalType": "bool",
          "name": "approved",
          "type": "bool"
        }
      ],
      "name": "setApprovalForAll",
      "outputs": [],
      "stateMutability": "nonpayable",
      "type": "function"
    },
    {
      "inputs": [
        {
          "internalType": "uint256",
          "name": "tokenId",
          "type": "uint256"
        },
        {
          "internalType": "address",
          "name": "recipient",
          "type": "address"
        },
        {
          "internalType": "uint256",
          "name": "value",
          "type": "uint256"
        }
      ],
      "name": "setTokenRoyalty",
      "outputs": [],
      "stateMutability": "nonpayable",
      "type": "function"
    },
    {
      "inputs": [
        {
          "internalType": "bytes4",
          "name": "interfaceId",
          "type": "bytes4"
        }
      ],
      "name": "supportsInterface",
      "outputs": [
        {
          "internalType": "bool",
          "name": "",
          "type": "bool"
        }
      ],
      "stateMutability": "view",
      "type": "function"
    },
    {
      "inputs": [],
      "name": "symbol",
      "outputs": [
        {
          "internalType": "string",
          "name": "",
          "type": "string"
        }
      ],
      "stateMutability": "view",
      "type": "function"
    },
    {
      "inputs": [
        {
          "internalType": "uint256",
          "name": "index",
          "type": "uint256"
        }
      ],
      "name": "tokenByIndex",
      "outputs": [
        {
          "internalType": "uint256",
          "name": "",
          "type": "uint256"
        }
      ],
      "stateMutability": "view",
      "type": "function"
    },
    {
      "inputs": [
        {
          "internalType": "address",
          "name": "owner",
          "type": "address"
        },
        {
          "internalType": "uint256",
          "name": "index",
          "type": "uint256"
        }
      ],
      "name": "tokenOfOwnerByIndex",
      "outputs": [
        {
          "internalType": "uint256",
          "name": "",
          "type": "uint256"
        }
      ],
      "stateMutability": "view",
      "type": "function"
    },
    {
      "inputs": [
        {
          "internalType": "uint256",
          "name": "tokenId",
          "type": "uint256"
        }
      ],
      "name": "tokenURI",
      "outputs": [
        {
          "internalType": "string",
          "name": "",
          "type": "string"
        }
      ],
      "stateMutability": "view",
      "type": "function"
    },
    {
      "inputs": [],
      "name": "totalSupply",
      "outputs": [
        {
          "internalType": "uint256",
          "name": "",
          "type": "uint256"
        }
      ],
      "stateMutability": "view",
      "type": "function"
    },
    {
      "inputs": [
        {
          "internalType": "address",
          "name": "from",
          "type": "address"
        },
        {
          "internalType": "address",
          "name": "to",
          "type": "address"
        },
        {
          "internalType": "uint256",
          "name": "tokenId",
          "type": "uint256"
        }
      ],
      "name": "transferFrom",
      "outputs": [],
      "stateMutability": "nonpayable",
      "type": "function"
    },
    {
      "inputs": [],
      "name": "unpause",
      "outputs": [],
      "stateMutability": "nonpayable",
      "type": "function"
    }
  ],
  "bytecode": "0x60806040523480156200001157600080fd5b5060405162005b5a38038062005b5a833981810160405281019062000037919062000716565b80858585858383816003908051906020019062000056929190620005c6565b5080600490805190602001906200006f929190620005c6565b5050506000600960006101000a81548160ff021916908315150217905550620000a5632a55205a60e01b6200019760201b60201c565b81600d9080519060200190620000bd929190620005c6565b50620000e26000801b620000d66200027060201b60201c565b6200028c60201b60201c565b620001147f9f2df0fed2c77648de5860a4cc508cd0818c85b8b8a1ab4ceeef8d981c8956a6826200028c60201b60201c565b620001467f65d7a28e3265b37a6474929f336521b332c1681b933f6cb9f3376673440d862a826200028c60201b60201c565b5050505080600e60006101000a81548173ffffffffffffffffffffffffffffffffffffffff021916908373ffffffffffffffffffffffffffffffffffffffff16021790555050505050505062000a52565b63ffffffff60e01b817bffffffffffffffffffffffffffffffffffffffffffffffffffffffff1916141562000203576040517f08c379a0000000000000000000000000000000000000000000000000000000008152600401620001fa906200080a565b60405180910390fd5b6001600b6000837bffffffffffffffffffffffffffffffffffffffffffffffffffffffff19167bffffffffffffffffffffffffffffffffffffffffffffffffffffffff1916815260200190815260200160002060006101000a81548160ff02191690831515021790555050565b600062000287620002d460201b6200194d1760201c565b905090565b620002a382826200031e60201b6200197f1760201c565b620002cf81600160008581526020019081526020016000206200033460201b6200198d1790919060201c565b505050565b6000620002e7336200036c60201b60201c565b15620002fd57601436033560601c90506200031a565b62000312620003c660201b620019bd1760201c565b90506200031b565b5b90565b620003308282620003ce60201b60201c565b5050565b600062000364836000018373ffffffffffffffffffffffffffffffffffffffff1660001b620004bf60201b60201c565b905092915050565b6000600e60009054906101000a900473ffffffffffffffffffffffffffffffffffffffff1673ffffffffffffffffffffffffffffffffffffffff168273ffffffffffffffffffffffffffffffffffffffff16149050919050565b600033905090565b620003e082826200053960201b60201c565b620004bb57600160008084815260200190815260200160002060000160008373ffffffffffffffffffffffffffffffffffffffff1673ffffffffffffffffffffffffffffffffffffffff16815260200190815260200160002060006101000a81548160ff021916908315150217905550620004606200027060201b60201c565b73ffffffffffffffffffffffffffffffffffffffff168173ffffffffffffffffffffffffffffffffffffffff16837f2f8788117e7eff1d82e926ec794901d17c78024a50270940304540a733656f0d60405160405180910390a45b5050565b6000620004d38383620005a360201b60201c565b6200052e57826000018290806001815401808255809150506001900390600052602060002001600090919091909150558260000180549050836001016000848152602001908152602001600020819055506001905062000533565b600090505b92915050565b600080600084815260200190815260200160002060000160008373ffffffffffffffffffffffffffffffffffffffff1673ffffffffffffffffffffffffffffffffffffffff16815260200190815260200160002060009054906101000a900460ff16905092915050565b600080836001016000848152602001908152602001600020541415905092915050565b828054620005d4906200091a565b90600052602060002090601f016020900481019282620005f8576000855562000644565b82601f106200061357805160ff191683800117855562000644565b8280016001018555821562000644579182015b828111156200064357825182559160200191906001019062000626565b5b50905062000653919062000657565b5090565b5b808211156200067257600081600090555060010162000658565b5090565b60006200068d620006878462000855565b6200082c565b905082815260208101848484011115620006a657600080fd5b620006b3848285620008e4565b509392505050565b600081519050620006cc8162000a1e565b92915050565b600081519050620006e38162000a38565b92915050565b600082601f830112620006fb57600080fd5b81516200070d84826020860162000676565b91505092915050565b600080600080600060a086880312156200072f57600080fd5b600086015167ffffffffffffffff8111156200074a57600080fd5b6200075888828901620006e9565b955050602086015167ffffffffffffffff8111156200077657600080fd5b6200078488828901620006e9565b945050604086015167ffffffffffffffff811115620007a257600080fd5b620007b088828901620006e9565b9350506060620007c388828901620006bb565b9250506080620007d688828901620006d2565b9150509295509295909350565b6000620007f2601c836200088b565b9150620007ff82620009f5565b602082019050919050565b600060208201905081810360008301526200082581620007e3565b9050919050565b6000620008386200084b565b905062000846828262000950565b919050565b6000604051905090565b600067ffffffffffffffff821115620008735762000872620009b5565b5b6200087e82620009e4565b9050602081019050919050565b600082825260208201905092915050565b6000620008a982620008c4565b9050919050565b6000620008bd826200089c565b9050919050565b600073ffffffffffffffffffffffffffffffffffffffff82169050919050565b60005b8381101562000904578082015181840152602081019050620008e7565b8381111562000914576000848401525b50505050565b600060028204905060018216806200093357607f821691505b602082108114156200094a576200094962000986565b5b50919050565b6200095b82620009e4565b810181811067ffffffffffffffff821117156200097d576200097c620009b5565b5b80604052505050565b7f4e487b7100000000000000000000000000000000000000000000000000000000600052602260045260246000fd5b7f4e487b7100000000000000000000000000000000000000000000000000000000600052604160045260246000fd5b6000601f19601f8301169050919050565b7f4552433136353a20696e76616c696420696e7465726661636520696400000000600082015250565b62000a29816200089c565b811462000a3557600080fd5b50565b62000a4381620008b0565b811462000a4f57600080fd5b50565b6150f88062000a626000396000f3fe608060405234801561001057600080fd5b50600436106102065760003560e01c80635c975abb1161011a578063a217fddf116100ad578063ca15c8731161007c578063ca15c87314610622578063d539139314610652578063d547741f14610670578063e63ab1e91461068c578063e985e9c5146106aa57610206565b8063a217fddf1461059c578063a22cb465146105ba578063b88d4fde146105d6578063c87b56dd146105f257610206565b80639010d07c116100e95780639010d07c1461050257806391d148541461053257806395d89b41146105625780639713c8071461058057610206565b80635c975abb1461047a5780636352211e1461049857806370a08231146104c85780638456cb59146104f857610206565b80632a55205a1161019d5780633f4ba83a1161016c5780633f4ba83a146103d857806342842e0e146103e257806342966c68146103fe5780634f6ccce71461041a578063572b6c051461044a57610206565b80632a55205a1461033f5780632f2ff15d146103705780632f745c591461038c57806336568abe146103bc57610206565b8063095ea7b3116101d9578063095ea7b3146102b957806318160ddd146102d557806323b872dd146102f3578063248a9ca31461030f57610206565b806301ffc9a71461020b578063049e166c1461023b57806306fdde031461026b578063081812fc14610289575b600080fd5b61022560048036038101906102209190614590565b6106da565b6040516102329190614958565b60405180910390f35b610255600480360381019061025091906144ae565b6106ec565b6040516102629190614a50565b60405180910390f35b6102736109d4565b604051610280919061498e565b60405180910390f35b6102a3600480360381019061029e91906145e2565b610a66565b6040516102b091906148c8565b60405180910390f35b6102d360048036038101906102ce9190614472565b610ae2565b005b6102dd610bed565b6040516102ea9190614a50565b60405180910390f35b61030d6004803603810190610308919061436c565b610c45565b005b610329600480360381019061032491906144ef565b610c55565b6040516103369190614973565b60405180910390f35b6103596004803603810190610354919061465a565b610c74565b60405161036792919061492f565b60405180910390f35b61038a60048036038101906103859190614518565b610d27565b005b6103a660048036038101906103a19190614472565b610d5b565b6040516103b39190614a50565b60405180910390f35b6103d660048036038101906103d19190614518565b610f63565b005b6103e0610f97565b005b6103fc60048036038101906103f7919061436c565b611008565b005b610418600480360381019061041391906145e2565b611028565b005b610434600480360381019061042f91906145e2565b611119565b6040516104419190614a50565b60405180910390f35b610464600480360381019061045f9190614307565b61128c565b6040516104719190614958565b60405180910390f35b6104826112e6565b60405161048f9190614958565b60405180910390f35b6104b260048036038101906104ad91906145e2565b6112fd565b6040516104bf91906148c8565b60405180910390f35b6104e260048036038101906104dd9190614307565b611313565b6040516104ef9190614a50565b60405180910390f35b6105006113e3565b005b61051c60048036038101906105179190614554565b611454565b60405161052991906148c8565b60405180910390f35b61054c60048036038101906105479190614518565b611483565b6040516105599190614958565b60405180910390f35b61056a6114ed565b604051610577919061498e565b60405180910390f35b61059a6004803603810190610595919061460b565b61157f565b005b6105a4611635565b6040516105b19190614973565b60405180910390f35b6105d460048036038101906105cf9190614436565b61163c565b005b6105f060048036038101906105eb91906143bb565b6117b4565b005b61060c600480360381019061060791906145e2565b611807565b604051610619919061498e565b60405180910390f35b61063c600480360381019061063791906144ef565b611819565b6040516106499190614a50565b60405180910390f35b61065a61183d565b6040516106679190614973565b60405180910390f35b61068a60048036038101906106859190614518565b611861565b005b610694611895565b6040516106a19190614973565b60405180910390f35b6106c460048036038101906106bf9190614330565b6118b9565b6040516106d19190614958565b60405180910390f35b60006106e5826119c5565b9050919050565b600061071f7f9f2df0fed2c77648de5860a4cc508cd0818c85b8b8a1ab4ceeef8d981c8956a661071a6119d7565b611483565b610755576040517fb5900bc100000000000000000000000000000000000000000000000000000000815260040160405180910390fd5b6000600260009054906101000a90046fffffffffffffffffffffffffffffffff166fffffffffffffffffffffffffffffffff169050600080600190505b84518110156108c6578482815181106107d4577f4e487b7100000000000000000000000000000000000000000000000000000000600052603260045260246000fd5b60200260200101516000015173ffffffffffffffffffffffffffffffffffffffff1685828151811061082f577f4e487b7100000000000000000000000000000000000000000000000000000000600052603260045260246000fd5b60200260200101516000015173ffffffffffffffffffffffffffffffffffffffff16146108b3576108af858381518110610892577f4e487b7100000000000000000000000000000000000000000000000000000000600052603260045260246000fd5b60200260200101516000015183836108aa9190614c42565b6119e6565b8091505b80806108be90614dc3565b915050610792565b50610921848281518110610903577f4e487b7100000000000000000000000000000000000000000000000000000000600052603260045260246000fd5b60200260200101516000015182865161091c9190614c42565b6119e6565b60005b845181101561099957610986818461093c9190614b61565b868381518110610975577f4e487b7100000000000000000000000000000000000000000000000000000000600052603260045260246000fd5b602002602001015160200151611a04565b808061099190614dc3565b915050610924565b50600260009054906101000a90046fffffffffffffffffffffffffffffffff166fffffffffffffffffffffffffffffffff1692505050919050565b6060600380546109e390614d60565b80601f0160208091040260200160405190810160405280929190818152602001828054610a0f90614d60565b8015610a5c5780601f10610a3157610100808354040283529160200191610a5c565b820191906000526020600020905b815481529060010190602001808311610a3f57829003601f168201915b5050505050905090565b6000610a7182611a6f565b610aa7576040517fcf4700e400000000000000000000000000000000000000000000000000000000815260040160405180910390fd5b6007600083815260200190815260200160002060009054906101000a900473ffffffffffffffffffffffffffffffffffffffff169050919050565b6000610aed826112fd565b90508073ffffffffffffffffffffffffffffffffffffffff168373ffffffffffffffffffffffffffffffffffffffff161415610b55576040517f943f7b8c00000000000000000000000000000000000000000000000000000000815260040160405180910390fd5b8073ffffffffffffffffffffffffffffffffffffffff16610b746119d7565b73ffffffffffffffffffffffffffffffffffffffff1614158015610ba65750610ba481610b9f6119d7565b6118b9565b155b15610bdd576040517fcfb3b94200000000000000000000000000000000000000000000000000000000815260040160405180910390fd5b610be8838383611ad8565b505050565b6000600260109054906101000a90046fffffffffffffffffffffffffffffffff16600260009054906101000a90046fffffffffffffffffffffffffffffffff16036fffffffffffffffffffffffffffffffff16905090565b610c50838383611b8a565b505050565b6000806000838152602001908152602001600020600101549050919050565b6000806000600c60008681526020019081526020016000206040518060400160405290816000820160009054906101000a900473ffffffffffffffffffffffffffffffffffffffff1673ffffffffffffffffffffffffffffffffffffffff1673ffffffffffffffffffffffffffffffffffffffff16815260200160018201548152505090508060000151612710826020015186610d119190614be8565b610d1b9190614bb7565b92509250509250929050565b610d3182826120a9565b610d56816001600085815260200190815260200160002061198d90919063ffffffff16565b505050565b6000610d6683611313565b8210610d9e576040517f0ddac30e00000000000000000000000000000000000000000000000000000000815260040160405180910390fd5b6000600260009054906101000a90046fffffffffffffffffffffffffffffffff166fffffffffffffffffffffffffffffffff16905060008060005b83811015610f57576000600560008381526020019081526020016000206040518060600160405290816000820160009054906101000a900473ffffffffffffffffffffffffffffffffffffffff1673ffffffffffffffffffffffffffffffffffffffff1673ffffffffffffffffffffffffffffffffffffffff1681526020016000820160149054906101000a900467ffffffffffffffff1667ffffffffffffffff1667ffffffffffffffff16815260200160008201601c9054906101000a900460ff1615151515815250509050806040015115610eb65750610f4a565b600073ffffffffffffffffffffffffffffffffffffffff16816000015173ffffffffffffffffffffffffffffffffffffffff1614610ef657806000015192505b8773ffffffffffffffffffffffffffffffffffffffff168373ffffffffffffffffffffffffffffffffffffffff161415610f485786841415610f3f578195505050505050610f5d565b83806001019450505b505b8080600101915050610dd9565b50600080fd5b92915050565b610f6d82826120d2565b610f92816001600085815260200190815260200160002061215590919063ffffffff16565b505050565b610fc87f65d7a28e3265b37a6474929f336521b332c1681b933f6cb9f3376673440d862a610fc36119d7565b611483565b610ffe576040517fb27fd20800000000000000000000000000000000000000000000000000000000815260040160405180910390fd5b611006612185565b565b611023838383604051806020016040528060008152506117b4565b505050565b600061103382612227565b90506000816000015173ffffffffffffffffffffffffffffffffffffffff1661105a6119d7565b73ffffffffffffffffffffffffffffffffffffffff16148061108d575061108c82600001516110876119d7565b6118b9565b5b806110d2575061109b6119d7565b73ffffffffffffffffffffffffffffffffffffffff166110ba84610a66565b73ffffffffffffffffffffffffffffffffffffffff16145b90508061110b576040517f59c896be00000000000000000000000000000000000000000000000000000000815260040160405180910390fd5b611114836124d1565b505050565b600080600260009054906101000a90046fffffffffffffffffffffffffffffffff166fffffffffffffffffffffffffffffffff1690506000805b82811015611254576000600560008381526020019081526020016000206040518060600160405290816000820160009054906101000a900473ffffffffffffffffffffffffffffffffffffffff1673ffffffffffffffffffffffffffffffffffffffff1673ffffffffffffffffffffffffffffffffffffffff1681526020016000820160149054906101000a900467ffffffffffffffff1667ffffffffffffffff1667ffffffffffffffff16815260200160008201601c9054906101000a900460ff16151515158152505090508060400151611246578583141561123d5781945050505050611287565b82806001019350505b508080600101915050611153565b506040517fa723001c00000000000000000000000000000000000000000000000000000000815260040160405180910390fd5b919050565b6000600e60009054906101000a900473ffffffffffffffffffffffffffffffffffffffff1673ffffffffffffffffffffffffffffffffffffffff168273ffffffffffffffffffffffffffffffffffffffff16149050919050565b6000600960009054906101000a900460ff16905090565b600061130882612227565b600001519050919050565b60008073ffffffffffffffffffffffffffffffffffffffff168273ffffffffffffffffffffffffffffffffffffffff16141561137b576040517f8f4eb60400000000000000000000000000000000000000000000000000000000815260040160405180910390fd5b600660008373ffffffffffffffffffffffffffffffffffffffff1673ffffffffffffffffffffffffffffffffffffffff16815260200190815260200160002060000160009054906101000a900467ffffffffffffffff1667ffffffffffffffff169050919050565b6114147f65d7a28e3265b37a6474929f336521b332c1681b933f6cb9f3376673440d862a61140f6119d7565b611483565b61144a576040517f4e7bc91b00000000000000000000000000000000000000000000000000000000815260040160405180910390fd5b6114526124dd565b565b600061147b826001600086815260200190815260200160002061258090919063ffffffff16565b905092915050565b600080600084815260200190815260200160002060000160008373ffffffffffffffffffffffffffffffffffffffff1673ffffffffffffffffffffffffffffffffffffffff16815260200190815260200160002060009054906101000a900460ff16905092915050565b6060600480546114fc90614d60565b80601f016020809104026020016040519081016040528092919081815260200182805461152890614d60565b80156115755780601f1061154a57610100808354040283529160200191611575565b820191906000526020600020905b81548152906001019060200180831161155857829003601f168201915b5050505050905090565b6115b07f9f2df0fed2c77648de5860a4cc508cd0818c85b8b8a1ab4ceeef8d981c8956a66115ab6119d7565b611483565b6115e6576040517f436d3a2500000000000000000000000000000000000000000000000000000000815260040160405180910390fd5b6115ef83611a6f565b611625576040517ff1a3f02200000000000000000000000000000000000000000000000000000000815260040160405180910390fd5b61163083838361259a565b505050565b6000801b81565b6116446119d7565b73ffffffffffffffffffffffffffffffffffffffff168273ffffffffffffffffffffffffffffffffffffffff1614156116a9576040517fb06307db00000000000000000000000000000000000000000000000000000000815260040160405180910390fd5b80600860006116b66119d7565b73ffffffffffffffffffffffffffffffffffffffff1673ffffffffffffffffffffffffffffffffffffffff16815260200190815260200160002060008473ffffffffffffffffffffffffffffffffffffffff1673ffffffffffffffffffffffffffffffffffffffff16815260200190815260200160002060006101000a81548160ff0219169083151502179055508173ffffffffffffffffffffffffffffffffffffffff166117636119d7565b73ffffffffffffffffffffffffffffffffffffffff167f17307eab39ab6107e8899845ad3d59bd9653f200f220920489ca2b5937696c31836040516117a89190614958565b60405180910390a35050565b6117bf848484611b8a565b6117cb84848484612676565b611801576040517fd1a57ed600000000000000000000000000000000000000000000000000000000815260040160405180910390fd5b50505050565b606061181282612804565b9050919050565b60006118366001600084815260200190815260200160002061294d565b9050919050565b7f9f2df0fed2c77648de5860a4cc508cd0818c85b8b8a1ab4ceeef8d981c8956a681565b61186b8282612962565b611890816001600085815260200190815260200160002061215590919063ffffffff16565b505050565b7f65d7a28e3265b37a6474929f336521b332c1681b933f6cb9f3376673440d862a81565b6000600860008473ffffffffffffffffffffffffffffffffffffffff1673ffffffffffffffffffffffffffffffffffffffff16815260200190815260200160002060008373ffffffffffffffffffffffffffffffffffffffff1673ffffffffffffffffffffffffffffffffffffffff16815260200190815260200160002060009054906101000a900460ff16905092915050565b60006119583361128c565b1561196c57601436033560601c905061197b565b6119746119bd565b905061197c565b5b90565b611989828261298b565b5050565b60006119b5836000018373ffffffffffffffffffffffffffffffffffffffff1660001b612a6b565b905092915050565b600033905090565b60006119d082612adb565b9050919050565b60006119e161194d565b905090565b611a00828260405180602001604052806000815250612b53565b5050565b611a0d82611a6f565b611a43576040517f0bba7b4500000000000000000000000000000000000000000000000000000000815260040160405180910390fd5b80600a60008481526020019081526020016000209080519060200190611a6a929190613f7f565b505050565b6000600260009054906101000a90046fffffffffffffffffffffffffffffffff166fffffffffffffffffffffffffffffffff1682108015611ad1575060056000838152602001908152602001600020600001601c9054906101000a900460ff16155b9050919050565b826007600084815260200190815260200160002060006101000a81548173ffffffffffffffffffffffffffffffffffffffff021916908373ffffffffffffffffffffffffffffffffffffffff160217905550818373ffffffffffffffffffffffffffffffffffffffff168273ffffffffffffffffffffffffffffffffffffffff167f8c5be1e5ebec7d5bd14f71427d1e84f3dd0314c0f7b2291e5b200ac8c7c3b92560405160405180910390a4505050565b6000611b9582612227565b90506000816000015173ffffffffffffffffffffffffffffffffffffffff16611bbc6119d7565b73ffffffffffffffffffffffffffffffffffffffff161480611bef5750611bee8260000151611be96119d7565b6118b9565b5b80611c345750611bfd6119d7565b73ffffffffffffffffffffffffffffffffffffffff16611c1c84610a66565b73ffffffffffffffffffffffffffffffffffffffff16145b905080611c6d576040517f59c896be00000000000000000000000000000000000000000000000000000000815260040160405180910390fd5b8473ffffffffffffffffffffffffffffffffffffffff16826000015173ffffffffffffffffffffffffffffffffffffffff1614611cd6576040517fa114810000000000000000000000000000000000000000000000000000000000815260040160405180910390fd5b600073ffffffffffffffffffffffffffffffffffffffff168473ffffffffffffffffffffffffffffffffffffffff161415611d3d576040517fea553b3400000000000000000000000000000000000000000000000000000000815260040160405180910390fd5b611d4a8585856001612b65565b611d5a6000848460000151611ad8565b6001600660008773ffffffffffffffffffffffffffffffffffffffff1673ffffffffffffffffffffffffffffffffffffffff16815260200190815260200160002060000160008282829054906101000a900467ffffffffffffffff160392506101000a81548167ffffffffffffffff021916908367ffffffffffffffff1602179055506001600660008673ffffffffffffffffffffffffffffffffffffffff1673ffffffffffffffffffffffffffffffffffffffff16815260200190815260200160002060000160008282829054906101000a900467ffffffffffffffff160192506101000a81548167ffffffffffffffff021916908367ffffffffffffffff160217905550836005600085815260200190815260200160002060000160006101000a81548173ffffffffffffffffffffffffffffffffffffffff021916908373ffffffffffffffffffffffffffffffffffffffff160217905550426005600085815260200190815260200160002060000160146101000a81548167ffffffffffffffff021916908367ffffffffffffffff1602179055506000600184019050600073ffffffffffffffffffffffffffffffffffffffff166005600083815260200190815260200160002060000160009054906101000a900473ffffffffffffffffffffffffffffffffffffffff1673ffffffffffffffffffffffffffffffffffffffff16141561203957600260009054906101000a90046fffffffffffffffffffffffffffffffff166fffffffffffffffffffffffffffffffff168110156120385782600001516005600083815260200190815260200160002060000160006101000a81548173ffffffffffffffffffffffffffffffffffffffff021916908373ffffffffffffffffffffffffffffffffffffffff16021790555082602001516005600083815260200190815260200160002060000160146101000a81548167ffffffffffffffff021916908367ffffffffffffffff1602179055505b5b50828473ffffffffffffffffffffffffffffffffffffffff168673ffffffffffffffffffffffffffffffffffffffff167fddf252ad1be2c89b69c2b068fc378daa952ba7f163c4a11628f55a4df523b3ef60405160405180910390a46120a28585856001612b77565b5050505050565b6120b282610c55565b6120c3816120be6119d7565b612b7d565b6120cd838361298b565b505050565b6120da6119d7565b73ffffffffffffffffffffffffffffffffffffffff168173ffffffffffffffffffffffffffffffffffffffff1614612147576040517f08c379a000000000000000000000000000000000000000000000000000000000815260040161213e90614a30565b60405180910390fd5b6121518282612c1a565b5050565b600061217d836000018373ffffffffffffffffffffffffffffffffffffffff1660001b612cfb565b905092915050565b61218d6112e6565b6121cc576040517f08c379a00000000000000000000000000000000000000000000000000000000081526004016121c3906149d0565b60405180910390fd5b6000600960006101000a81548160ff0219169083151502179055507f5db9ee0a495bf2e6ff9c91a7834c1ba4fdd244a5e8aa4e537bd38aeae4b073aa6122106119d7565b60405161221d91906148c8565b60405180910390a1565b61222f614005565b6000829050600260009054906101000a90046fffffffffffffffffffffffffffffffff166fffffffffffffffffffffffffffffffff1681101561249a576000600560008381526020019081526020016000206040518060600160405290816000820160009054906101000a900473ffffffffffffffffffffffffffffffffffffffff1673ffffffffffffffffffffffffffffffffffffffff1673ffffffffffffffffffffffffffffffffffffffff1681526020016000820160149054906101000a900467ffffffffffffffff1667ffffffffffffffff1667ffffffffffffffff16815260200160008201601c9054906101000a900460ff1615151515815250509050806040015161249857600073ffffffffffffffffffffffffffffffffffffffff16816000015173ffffffffffffffffffffffffffffffffffffffff161461237c5780925050506124cc565b5b60011561249757818060019003925050600560008381526020019081526020016000206040518060600160405290816000820160009054906101000a900473ffffffffffffffffffffffffffffffffffffffff1673ffffffffffffffffffffffffffffffffffffffff1673ffffffffffffffffffffffffffffffffffffffff1681526020016000820160149054906101000a900467ffffffffffffffff1667ffffffffffffffff1667ffffffffffffffff16815260200160008201601c9054906101000a900460ff1615151515815250509050600073ffffffffffffffffffffffffffffffffffffffff16816000015173ffffffffffffffffffffffffffffffffffffffff16146124925780925050506124cc565b61237d565b5b505b6040517fdf2d9b4200000000000000000000000000000000000000000000000000000000815260040160405180910390fd5b919050565b6124da81612e81565b50565b6124e56112e6565b15612525576040517f08c379a000000000000000000000000000000000000000000000000000000000815260040161251c906149f0565b60405180910390fd5b6001600960006101000a81548160ff0219169083151502179055507f62e78cea01bee320cd4e420270b5ea74000d11b0c9f74754ebdbfc544b05a2586125696119d7565b60405161257691906148c8565b60405180910390a1565b600061258f8360000183612ed4565b60001c905092915050565b6127108111156125df576040517f08c379a00000000000000000000000000000000000000000000000000000000081526004016125d690614a10565b60405180910390fd5b60405180604001604052808373ffffffffffffffffffffffffffffffffffffffff16815260200182815250600c600085815260200190815260200160002060008201518160000160006101000a81548173ffffffffffffffffffffffffffffffffffffffff021916908373ffffffffffffffffffffffffffffffffffffffff16021790555060208201518160010155905050505050565b60006126978473ffffffffffffffffffffffffffffffffffffffff16612f25565b156127f7578373ffffffffffffffffffffffffffffffffffffffff1663150b7a026126c06119d7565b8786866040518563ffffffff1660e01b81526004016126e294939291906148e3565b602060405180830381600087803b1580156126fc57600080fd5b505af192505050801561272d57506040513d601f19601f8201168201806040525081019061272a91906145b9565b60015b6127a7573d806000811461275d576040519150601f19603f3d011682016040523d82523d6000602084013e612762565b606091505b5060008151141561279f576040517fd1a57ed600000000000000000000000000000000000000000000000000000000815260040160405180910390fd5b805181602001fd5b63150b7a0260e01b7bffffffffffffffffffffffffffffffffffffffffffffffffffffffff1916817bffffffffffffffffffffffffffffffffffffffffffffffffffffffff1916149150506127fc565b600190505b949350505050565b606061280f82611a6f565b612845576040517fa14c4b5000000000000000000000000000000000000000000000000000000000815260040160405180910390fd5b6000600a6000848152602001908152602001600020805461286590614d60565b80601f016020809104026020016040519081016040528092919081815260200182805461289190614d60565b80156128de5780601f106128b3576101008083540402835291602001916128de565b820191906000526020600020905b8154815290600101906020018083116128c157829003601f168201915b5050505050905060006128ef612f38565b9050600081511415612905578192505050612948565b60008251111561293a57808260405160200161292292919061486a565b60405160208183030381529060405292505050612948565b61294384612f4f565b925050505b919050565b600061295b82600001612fee565b9050919050565b61296b82610c55565b61297c816129776119d7565b612b7d565b6129868383612c1a565b505050565b6129958282611483565b612a6757600160008084815260200190815260200160002060000160008373ffffffffffffffffffffffffffffffffffffffff1673ffffffffffffffffffffffffffffffffffffffff16815260200190815260200160002060006101000a81548160ff021916908315150217905550612a0c6119d7565b73ffffffffffffffffffffffffffffffffffffffff168173ffffffffffffffffffffffffffffffffffffffff16837f2f8788117e7eff1d82e926ec794901d17c78024a50270940304540a733656f0d60405160405180910390a45b5050565b6000612a778383612fff565b612ad0578260000182908060018154018082558091505060019003906000526020600020016000909190919091505582600001805490508360010160008481526020019081526020016000208190555060019050612ad5565b600090505b92915050565b6000612ae682613022565b80612b4c5750600b6000837bffffffffffffffffffffffffffffffffffffffffffffffffffffffff19167bffffffffffffffffffffffffffffffffffffffffffffffffffffffff1916815260200190815260200160002060009054906101000a900460ff165b9050919050565b612b60838383600161316c565b505050565b612b7184848484613504565b50505050565b50505050565b612b878282611483565b612c1657612bac8173ffffffffffffffffffffffffffffffffffffffff166014613555565b612bba8360001c6020613555565b604051602001612bcb92919061488e565b6040516020818303038152906040526040517f08c379a0000000000000000000000000000000000000000000000000000000008152600401612c0d919061498e565b60405180910390fd5b5050565b612c248282611483565b15612cf757600080600084815260200190815260200160002060000160008373ffffffffffffffffffffffffffffffffffffffff1673ffffffffffffffffffffffffffffffffffffffff16815260200190815260200160002060006101000a81548160ff021916908315150217905550612c9c6119d7565b73ffffffffffffffffffffffffffffffffffffffff168173ffffffffffffffffffffffffffffffffffffffff16837ff6391f5c32d9c69d2a47ea670b442974b53935d1edc7fd64eb21e047a839171b60405160405180910390a45b5050565b60008083600101600084815260200190815260200160002054905060008114612e75576000600182612d2d9190614c42565b9050600060018660000180549050612d459190614c42565b9050818114612e00576000866000018281548110612d8c577f4e487b7100000000000000000000000000000000000000000000000000000000600052603260045260246000fd5b9060005260206000200154905080876000018481548110612dd6577f4e487b7100000000000000000000000000000000000000000000000000000000600052603260045260246000fd5b90600052602060002001819055508387600101600083815260200190815260200160002081905550505b85600001805480612e3a577f4e487b7100000000000000000000000000000000000000000000000000000000600052603160045260246000fd5b600190038181906000526020600020016000905590558560010160008681526020019081526020016000206000905560019350505050612e7b565b60009150505b92915050565b612e8a8161384f565b6000600a60008381526020019081526020016000208054612eaa90614d60565b905014612ed157600a60008281526020019081526020016000206000612ed09190614048565b5b50565b6000826000018281548110612f12577f4e487b7100000000000000000000000000000000000000000000000000000000600052603260045260246000fd5b9060005260206000200154905092915050565b600080823b905060008111915050919050565b606060405180602001604052806000815250905090565b6060612f5a82611a6f565b612f90576040517fa14c4b5000000000000000000000000000000000000000000000000000000000815260040160405180910390fd5b6000612f9a612f38565b9050600081511415612fbb5760405180602001604052806000815250612fe6565b80612fc584613c6e565b604051602001612fd692919061486a565b6040516020818303038152906040525b915050919050565b600081600001805490509050919050565b600080836001016000848152602001908152602001600020541415905092915050565b60007f80ac58cd000000000000000000000000000000000000000000000000000000007bffffffffffffffffffffffffffffffffffffffffffffffffffffffff1916827bffffffffffffffffffffffffffffffffffffffffffffffffffffffff191614806130ed57507f5b5e139f000000000000000000000000000000000000000000000000000000007bffffffffffffffffffffffffffffffffffffffffffffffffffffffff1916827bffffffffffffffffffffffffffffffffffffffffffffffffffffffff1916145b8061315557507f780e9d63000000000000000000000000000000000000000000000000000000007bffffffffffffffffffffffffffffffffffffffffffffffffffffffff1916827bffffffffffffffffffffffffffffffffffffffffffffffffffffffff1916145b80613165575061316482613e1b565b5b9050919050565b6000600260009054906101000a90046fffffffffffffffffffffffffffffffff166fffffffffffffffffffffffffffffffff169050600073ffffffffffffffffffffffffffffffffffffffff168573ffffffffffffffffffffffffffffffffffffffff161415613208576040517f2e07630000000000000000000000000000000000000000000000000000000000815260040160405180910390fd5b6000841415613243576040517fb562e8dd00000000000000000000000000000000000000000000000000000000815260040160405180910390fd5b6132506000868387612b65565b83600660008773ffffffffffffffffffffffffffffffffffffffff1673ffffffffffffffffffffffffffffffffffffffff16815260200190815260200160002060000160008282829054906101000a900467ffffffffffffffff160192506101000a81548167ffffffffffffffff021916908367ffffffffffffffff16021790555083600660008773ffffffffffffffffffffffffffffffffffffffff1673ffffffffffffffffffffffffffffffffffffffff16815260200190815260200160002060000160088282829054906101000a900467ffffffffffffffff160192506101000a81548167ffffffffffffffff021916908367ffffffffffffffff160217905550846005600083815260200190815260200160002060000160006101000a81548173ffffffffffffffffffffffffffffffffffffffff021916908373ffffffffffffffffffffffffffffffffffffffff160217905550426005600083815260200190815260200160002060000160146101000a81548167ffffffffffffffff021916908367ffffffffffffffff160217905550600081905060005b858110156134b557818773ffffffffffffffffffffffffffffffffffffffff16600073ffffffffffffffffffffffffffffffffffffffff167fddf252ad1be2c89b69c2b068fc378daa952ba7f163c4a11628f55a4df523b3ef60405160405180910390a483801561346957506134676000888488612676565b155b156134a0576040517fd1a57ed600000000000000000000000000000000000000000000000000000000815260040160405180910390fd5b818060010192505080806001019150506133ee565b5080600260006101000a8154816fffffffffffffffffffffffffffffffff02191690836fffffffffffffffffffffffffffffffff160217905550506134fd6000868387612b77565b5050505050565b61351084848484613e95565b6135186112e6565b1561354f576040517f5abf78ce00000000000000000000000000000000000000000000000000000000815260040160405180910390fd5b50505050565b6060600060028360026135689190614be8565b6135729190614b61565b67ffffffffffffffff8111156135b1577f4e487b7100000000000000000000000000000000000000000000000000000000600052604160045260246000fd5b6040519080825280601f01601f1916602001820160405280156135e35781602001600182028036833780820191505090505b5090507f300000000000000000000000000000000000000000000000000000000000000081600081518110613641577f4e487b7100000000000000000000000000000000000000000000000000000000600052603260045260246000fd5b60200101907effffffffffffffffffffffffffffffffffffffffffffffffffffffffffffff1916908160001a9053507f7800000000000000000000000000000000000000000000000000000000000000816001815181106136cb577f4e487b7100000000000000000000000000000000000000000000000000000000600052603260045260246000fd5b60200101907effffffffffffffffffffffffffffffffffffffffffffffffffffffffffffff1916908160001a9053506000600184600261370b9190614be8565b6137159190614b61565b90505b6001811115613801577f3031323334353637383961626364656600000000000000000000000000000000600f86166010811061377d577f4e487b7100000000000000000000000000000000000000000000000000000000600052603260045260246000fd5b1a60f81b8282815181106137ba577f4e487b7100000000000000000000000000000000000000000000000000000000600052603260045260246000fd5b60200101907effffffffffffffffffffffffffffffffffffffffffffffffffffffffffffff1916908160001a905350600485901c9450806137fa90614d36565b9050613718565b5060008414613845576040517f08c379a000000000000000000000000000000000000000000000000000000000815260040161383c906149b0565b60405180910390fd5b8091505092915050565b600061385a82612227565b905061386e81600001516000846001612b65565b61387e6000838360000151611ad8565b600160066000836000015173ffffffffffffffffffffffffffffffffffffffff1673ffffffffffffffffffffffffffffffffffffffff16815260200190815260200160002060000160008282829054906101000a900467ffffffffffffffff160392506101000a81548167ffffffffffffffff021916908367ffffffffffffffff160217905550600160066000836000015173ffffffffffffffffffffffffffffffffffffffff1673ffffffffffffffffffffffffffffffffffffffff16815260200190815260200160002060000160108282829054906101000a900467ffffffffffffffff160192506101000a81548167ffffffffffffffff021916908367ffffffffffffffff16021790555080600001516005600084815260200190815260200160002060000160006101000a81548173ffffffffffffffffffffffffffffffffffffffff021916908373ffffffffffffffffffffffffffffffffffffffff160217905550426005600084815260200190815260200160002060000160146101000a81548167ffffffffffffffff021916908367ffffffffffffffff160217905550600160056000848152602001908152602001600020600001601c6101000a81548160ff0219169083151502179055506000600183019050600073ffffffffffffffffffffffffffffffffffffffff166005600083815260200190815260200160002060000160009054906101000a900473ffffffffffffffffffffffffffffffffffffffff1673ffffffffffffffffffffffffffffffffffffffff161415613b9857600260009054906101000a90046fffffffffffffffffffffffffffffffff166fffffffffffffffffffffffffffffffff16811015613b975781600001516005600083815260200190815260200160002060000160006101000a81548173ffffffffffffffffffffffffffffffffffffffff021916908373ffffffffffffffffffffffffffffffffffffffff16021790555081602001516005600083815260200190815260200160002060000160146101000a81548167ffffffffffffffff021916908367ffffffffffffffff1602179055505b5b5081600073ffffffffffffffffffffffffffffffffffffffff16826000015173ffffffffffffffffffffffffffffffffffffffff167fddf252ad1be2c89b69c2b068fc378daa952ba7f163c4a11628f55a4df523b3ef60405160405180910390a4613c0b81600001516000846001612b77565b6002601081819054906101000a90046fffffffffffffffffffffffffffffffff168092919060010191906101000a8154816fffffffffffffffffffffffffffffffff02191690836fffffffffffffffffffffffffffffffff160217905550505050565b60606000821415613cb6576040518060400160405280600181526020017f30000000000000000000000000000000000000000000000000000000000000008152509050613e16565b600082905060005b60008214613ce8578080613cd190614dc3565b915050600a82613ce19190614bb7565b9150613cbe565b60008167ffffffffffffffff811115613d2a577f4e487b7100000000000000000000000000000000000000000000000000000000600052604160045260246000fd5b6040519080825280601f01601f191660200182016040528015613d5c5781602001600182028036833780820191505090505b5090505b60008514613e0f57600182613d759190614c42565b9150600a85613d849190614e0c565b6030613d909190614b61565b60f81b818381518110613dcc577f4e487b7100000000000000000000000000000000000000000000000000000000600052603260045260246000fd5b60200101907effffffffffffffffffffffffffffffffffffffffffffffffffffffffffffff1916908160001a905350600a85613e089190614bb7565b9450613d60565b8093505050505b919050565b60007f5a05180f000000000000000000000000000000000000000000000000000000007bffffffffffffffffffffffffffffffffffffffffffffffffffffffff1916827bffffffffffffffffffffffffffffffffffffffffffffffffffffffff19161480613e8e5750613e8d82613e9b565b5b9050919050565b50505050565b60007f7965db0b000000000000000000000000000000000000000000000000000000007bffffffffffffffffffffffffffffffffffffffffffffffffffffffff1916827bffffffffffffffffffffffffffffffffffffffffffffffffffffffff19161480613f0e5750613f0d82613f15565b5b9050919050565b60007f01ffc9a7000000000000000000000000000000000000000000000000000000007bffffffffffffffffffffffffffffffffffffffffffffffffffffffff1916827bffffffffffffffffffffffffffffffffffffffffffffffffffffffff1916149050919050565b828054613f8b90614d60565b90600052602060002090601f016020900481019282613fad5760008555613ff4565b82601f10613fc657805160ff1916838001178555613ff4565b82800160010185558215613ff4579182015b82811115613ff3578251825591602001919060010190613fd8565b5b5090506140019190614088565b5090565b6040518060600160405280600073ffffffffffffffffffffffffffffffffffffffff168152602001600067ffffffffffffffff1681526020016000151581525090565b50805461405490614d60565b6000825580601f106140665750614085565b601f0160209004906000526020600020908101906140849190614088565b5b50565b5b808211156140a1576000816000905550600101614089565b5090565b60006140b86140b384614a90565b614a6b565b905080838252602082019050828560208602820111156140d757600080fd5b60005b8581101561412157813567ffffffffffffffff8111156140f957600080fd5b808601614106898261428e565b855260208501945060208401935050506001810190506140da565b5050509392505050565b600061413e61413984614abc565b614a6b565b90508281526020810184848401111561415657600080fd5b614161848285614cf4565b509392505050565b600061417c61417784614aed565b614a6b565b90508281526020810184848401111561419457600080fd5b61419f848285614cf4565b509392505050565b6000813590506141b68161504f565b92915050565b600082601f8301126141cd57600080fd5b81356141dd8482602086016140a5565b91505092915050565b6000813590506141f581615066565b92915050565b60008135905061420a8161507d565b92915050565b60008135905061421f81615094565b92915050565b60008151905061423481615094565b92915050565b600082601f83011261424b57600080fd5b813561425b84826020860161412b565b91505092915050565b600082601f83011261427557600080fd5b8135614285848260208601614169565b91505092915050565b6000604082840312156142a057600080fd5b6142aa6040614a6b565b905060006142ba848285016141a7565b600083015250602082013567ffffffffffffffff8111156142da57600080fd5b6142e684828501614264565b60208301525092915050565b600081359050614301816150ab565b92915050565b60006020828403121561431957600080fd5b6000614327848285016141a7565b91505092915050565b6000806040838503121561434357600080fd5b6000614351858286016141a7565b9250506020614362858286016141a7565b9150509250929050565b60008060006060848603121561438157600080fd5b600061438f868287016141a7565b93505060206143a0868287016141a7565b92505060406143b1868287016142f2565b9150509250925092565b600080600080608085870312156143d157600080fd5b60006143df878288016141a7565b94505060206143f0878288016141a7565b9350506040614401878288016142f2565b925050606085013567ffffffffffffffff81111561441e57600080fd5b61442a8782880161423a565b91505092959194509250565b6000806040838503121561444957600080fd5b6000614457858286016141a7565b9250506020614468858286016141e6565b9150509250929050565b6000806040838503121561448557600080fd5b6000614493858286016141a7565b92505060206144a4858286016142f2565b9150509250929050565b6000602082840312156144c057600080fd5b600082013567ffffffffffffffff8111156144da57600080fd5b6144e6848285016141bc565b91505092915050565b60006020828403121561450157600080fd5b600061450f848285016141fb565b91505092915050565b6000806040838503121561452b57600080fd5b6000614539858286016141fb565b925050602061454a858286016141a7565b9150509250929050565b6000806040838503121561456757600080fd5b6000614575858286016141fb565b9250506020614586858286016142f2565b9150509250929050565b6000602082840312156145a257600080fd5b60006145b084828501614210565b91505092915050565b6000602082840312156145cb57600080fd5b60006145d984828501614225565b91505092915050565b6000602082840312156145f457600080fd5b6000614602848285016142f2565b91505092915050565b60008060006060848603121561462057600080fd5b600061462e868287016142f2565b935050602061463f868287016141a7565b9250506040614650868287016142f2565b9150509250925092565b6000806040838503121561466d57600080fd5b600061467b858286016142f2565b925050602061468c858286016142f2565b9150509250929050565b61469f81614c76565b82525050565b6146ae81614c88565b82525050565b6146bd81614c94565b82525050565b60006146ce82614b1e565b6146d88185614b34565b93506146e8818560208601614d03565b6146f181614ef9565b840191505092915050565b600061470782614b29565b6147118185614b45565b9350614721818560208601614d03565b61472a81614ef9565b840191505092915050565b600061474082614b29565b61474a8185614b56565b935061475a818560208601614d03565b80840191505092915050565b6000614773602083614b45565b915061477e82614f0a565b602082019050919050565b6000614796601483614b45565b91506147a182614f33565b602082019050919050565b60006147b9601083614b45565b91506147c482614f5c565b602082019050919050565b60006147dc601183614b45565b91506147e782614f85565b602082019050919050565b60006147ff601783614b56565b915061480a82614fae565b601782019050919050565b6000614822601183614b56565b915061482d82614fd7565b601182019050919050565b6000614845602f83614b45565b915061485082615000565b604082019050919050565b61486481614cea565b82525050565b60006148768285614735565b91506148828284614735565b91508190509392505050565b6000614899826147f2565b91506148a58285614735565b91506148b082614815565b91506148bc8284614735565b91508190509392505050565b60006020820190506148dd6000830184614696565b92915050565b60006080820190506148f86000830187614696565b6149056020830186614696565b614912604083018561485b565b818103606083015261492481846146c3565b905095945050505050565b60006040820190506149446000830185614696565b614951602083018461485b565b9392505050565b600060208201905061496d60008301846146a5565b92915050565b600060208201905061498860008301846146b4565b92915050565b600060208201905081810360008301526149a881846146fc565b905092915050565b600060208201905081810360008301526149c981614766565b9050919050565b600060208201905081810360008301526149e981614789565b9050919050565b60006020820190508181036000830152614a09816147ac565b9050919050565b60006020820190508181036000830152614a29816147cf565b9050919050565b60006020820190508181036000830152614a4981614838565b9050919050565b6000602082019050614a65600083018461485b565b92915050565b6000614a75614a86565b9050614a818282614d92565b919050565b6000604051905090565b600067ffffffffffffffff821115614aab57614aaa614eca565b5b602082029050602081019050919050565b600067ffffffffffffffff821115614ad757614ad6614eca565b5b614ae082614ef9565b9050602081019050919050565b600067ffffffffffffffff821115614b0857614b07614eca565b5b614b1182614ef9565b9050602081019050919050565b600081519050919050565b600081519050919050565b600082825260208201905092915050565b600082825260208201905092915050565b600081905092915050565b6000614b6c82614cea565b9150614b7783614cea565b9250827fffffffffffffffffffffffffffffffffffffffffffffffffffffffffffffffff03821115614bac57614bab614e3d565b5b828201905092915050565b6000614bc282614cea565b9150614bcd83614cea565b925082614bdd57614bdc614e6c565b5b828204905092915050565b6000614bf382614cea565b9150614bfe83614cea565b9250817fffffffffffffffffffffffffffffffffffffffffffffffffffffffffffffffff0483118215151615614c3757614c36614e3d565b5b828202905092915050565b6000614c4d82614cea565b9150614c5883614cea565b925082821015614c6b57614c6a614e3d565b5b828203905092915050565b6000614c8182614cca565b9050919050565b60008115159050919050565b6000819050919050565b60007fffffffff0000000000000000000000000000000000000000000000000000000082169050919050565b600073ffffffffffffffffffffffffffffffffffffffff82169050919050565b6000819050919050565b82818337600083830152505050565b60005b83811015614d21578082015181840152602081019050614d06565b83811115614d30576000848401525b50505050565b6000614d4182614cea565b91506000821415614d5557614d54614e3d565b5b600182039050919050565b60006002820490506001821680614d7857607f821691505b60208210811415614d8c57614d8b614e9b565b5b50919050565b614d9b82614ef9565b810181811067ffffffffffffffff82111715614dba57614db9614eca565b5b80604052505050565b6000614dce82614cea565b91507fffffffffffffffffffffffffffffffffffffffffffffffffffffffffffffffff821415614e0157614e00614e3d565b5b600182019050919050565b6000614e1782614cea565b9150614e2283614cea565b925082614e3257614e31614e6c565b5b828206905092915050565b7f4e487b7100000000000000000000000000000000000000000000000000000000600052601160045260246000fd5b7f4e487b7100000000000000000000000000000000000000000000000000000000600052601260045260246000fd5b7f4e487b7100000000000000000000000000000000000000000000000000000000600052602260045260246000fd5b7f4e487b7100000000000000000000000000000000000000000000000000000000600052604160045260246000fd5b6000601f19601f8301169050919050565b7f537472696e67733a20686578206c656e67746820696e73756666696369656e74600082015250565b7f5061757361626c653a206e6f7420706175736564000000000000000000000000600082015250565b7f5061757361626c653a2070617573656400000000000000000000000000000000600082015250565b7f455243323938313a20746f6f2068696768000000000000000000000000000000600082015250565b7f416363657373436f6e74726f6c3a206163636f756e7420000000000000000000600082015250565b7f206973206d697373696e6720726f6c6520000000000000000000000000000000600082015250565b7f416363657373436f6e74726f6c3a2063616e206f6e6c792072656e6f756e636560008201527f20726f6c657320666f722073656c660000000000000000000000000000000000602082015250565b61505881614c76565b811461506357600080fd5b50565b61506f81614c88565b811461507a57600080fd5b50565b61508681614c94565b811461509157600080fd5b50565b61509d81614c9e565b81146150a857600080fd5b50565b6150b481614cea565b81146150bf57600080fd5b5056fea26469706673582212204de4e5ed98c4a599e5623477538730ad4d399a85936e7214d9661b185856464d64736f6c63430008040033",
  "linkReferences": {},
  "deployedLinkReferences": {}
}