{
  "_format": "hh-sol-artifact-1",
  "contractName": "ERC721WithRoyaltyMetaTx",
  "sourceName": "contracts/ERC721WithRoyaltyMetaTx.sol",
  "abi": [
    {
      "inputs": [
        {
          "internalType": "string",
          "name": "name",
          "type": "string"
        },
        {
          "internalType": "string",
          "name": "symbol",
          "type": "string"
        },
        {
          "internalType": "string",
          "name": "baseTokenURI",
          "type": "string"
        },
        {
          "internalType": "contract MinimalForwarder",
          "name": "fowarder",
          "type": "address"
        }
      ],
      "stateMutability": "nonpayable",
      "type": "constructor"
    },
    {
      "anonymous": false,
      "inputs": [
        {
          "indexed": true,
          "internalType": "address",
          "name": "owner",
          "type": "address"
        },
        {
          "indexed": true,
          "internalType": "address",
          "name": "approved",
          "type": "address"
        },
        {
          "indexed": true,
          "internalType": "uint256",
          "name": "tokenId",
          "type": "uint256"
        }
      ],
      "name": "Approval",
      "type": "event"
    },
    {
      "anonymous": false,
      "inputs": [
        {
          "indexed": true,
          "internalType": "address",
          "name": "owner",
          "type": "address"
        },
        {
          "indexed": true,
          "internalType": "address",
          "name": "operator",
          "type": "address"
        },
        {
          "indexed": false,
          "internalType": "bool",
          "name": "approved",
          "type": "bool"
        }
      ],
      "name": "ApprovalForAll",
      "type": "event"
    },
    {
      "anonymous": false,
      "inputs": [
        {
          "indexed": false,
          "internalType": "address",
          "name": "account",
          "type": "address"
        }
      ],
      "name": "Paused",
      "type": "event"
    },
    {
      "anonymous": false,
      "inputs": [
        {
          "indexed": true,
          "internalType": "bytes32",
          "name": "role",
          "type": "bytes32"
        },
        {
          "indexed": true,
          "internalType": "bytes32",
          "name": "previousAdminRole",
          "type": "bytes32"
        },
        {
          "indexed": true,
          "internalType": "bytes32",
          "name": "newAdminRole",
          "type": "bytes32"
        }
      ],
      "name": "RoleAdminChanged",
      "type": "event"
    },
    {
      "anonymous": false,
      "inputs": [
        {
          "indexed": true,
          "internalType": "bytes32",
          "name": "role",
          "type": "bytes32"
        },
        {
          "indexed": true,
          "internalType": "address",
          "name": "account",
          "type": "address"
        },
        {
          "indexed": true,
          "internalType": "address",
          "name": "sender",
          "type": "address"
        }
      ],
      "name": "RoleGranted",
      "type": "event"
    },
    {
      "anonymous": false,
      "inputs": [
        {
          "indexed": true,
          "internalType": "bytes32",
          "name": "role",
          "type": "bytes32"
        },
        {
          "indexed": true,
          "internalType": "address",
          "name": "account",
          "type": "address"
        },
        {
          "indexed": true,
          "internalType": "address",
          "name": "sender",
          "type": "address"
        }
      ],
      "name": "RoleRevoked",
      "type": "event"
    },
    {
      "anonymous": false,
      "inputs": [
        {
          "indexed": true,
          "internalType": "address",
          "name": "from",
          "type": "address"
        },
        {
          "indexed": true,
          "internalType": "address",
          "name": "to",
          "type": "address"
        },
        {
          "indexed": true,
          "internalType": "uint256",
          "name": "tokenId",
          "type": "uint256"
        }
      ],
      "name": "Transfer",
      "type": "event"
    },
    {
      "anonymous": false,
      "inputs": [
        {
          "indexed": false,
          "internalType": "address",
          "name": "account",
          "type": "address"
        }
      ],
      "name": "Unpaused",
      "type": "event"
    },
    {
      "inputs": [],
      "name": "DEFAULT_ADMIN_ROLE",
      "outputs": [
        {
          "internalType": "bytes32",
          "name": "",
          "type": "bytes32"
        }
      ],
      "stateMutability": "view",
      "type": "function"
    },
    {
      "inputs": [],
      "name": "MINTER_ROLE",
      "outputs": [
        {
          "internalType": "bytes32",
          "name": "",
          "type": "bytes32"
        }
      ],
      "stateMutability": "view",
      "type": "function"
    },
    {
      "inputs": [],
      "name": "PAUSER_ROLE",
      "outputs": [
        {
          "internalType": "bytes32",
          "name": "",
          "type": "bytes32"
        }
      ],
      "stateMutability": "view",
      "type": "function"
    },
    {
      "inputs": [
        {
          "internalType": "address",
          "name": "to",
          "type": "address"
        },
        {
          "internalType": "uint256",
          "name": "tokenId",
          "type": "uint256"
        }
      ],
      "name": "approve",
      "outputs": [],
      "stateMutability": "nonpayable",
      "type": "function"
    },
    {
      "inputs": [
        {
          "internalType": "address",
          "name": "owner",
          "type": "address"
        }
      ],
      "name": "balanceOf",
      "outputs": [
        {
          "internalType": "uint256",
          "name": "",
          "type": "uint256"
        }
      ],
      "stateMutability": "view",
      "type": "function"
    },
    {
      "inputs": [
        {
          "internalType": "uint256",
          "name": "tokenId",
          "type": "uint256"
        }
      ],
      "name": "burn",
      "outputs": [],
      "stateMutability": "nonpayable",
      "type": "function"
    },
    {
      "inputs": [
        {
          "internalType": "uint256",
          "name": "tokenId",
          "type": "uint256"
        }
      ],
      "name": "getApproved",
      "outputs": [
        {
          "internalType": "address",
          "name": "",
          "type": "address"
        }
      ],
      "stateMutability": "view",
      "type": "function"
    },
    {
      "inputs": [
        {
          "internalType": "bytes32",
          "name": "role",
          "type": "bytes32"
        }
      ],
      "name": "getRoleAdmin",
      "outputs": [
        {
          "internalType": "bytes32",
          "name": "",
          "type": "bytes32"
        }
      ],
      "stateMutability": "view",
      "type": "function"
    },
    {
      "inputs": [
        {
          "internalType": "bytes32",
          "name": "role",
          "type": "bytes32"
        },
        {
          "internalType": "uint256",
          "name": "index",
          "type": "uint256"
        }
      ],
      "name": "getRoleMember",
      "outputs": [
        {
          "internalType": "address",
          "name": "",
          "type": "address"
        }
      ],
      "stateMutability": "view",
      "type": "function"
    },
    {
      "inputs": [
        {
          "internalType": "bytes32",
          "name": "role",
          "type": "bytes32"
        }
      ],
      "name": "getRoleMemberCount",
      "outputs": [
        {
          "internalType": "uint256",
          "name": "",
          "type": "uint256"
        }
      ],
      "stateMutability": "view",
      "type": "function"
    },
    {
      "inputs": [
        {
          "internalType": "bytes32",
          "name": "role",
          "type": "bytes32"
        },
        {
          "internalType": "address",
          "name": "account",
          "type": "address"
        }
      ],
      "name": "grantRole",
      "outputs": [],
      "stateMutability": "nonpayable",
      "type": "function"
    },
    {
      "inputs": [
        {
          "internalType": "bytes32",
          "name": "role",
          "type": "bytes32"
        },
        {
          "internalType": "address",
          "name": "account",
          "type": "address"
        }
      ],
      "name": "hasRole",
      "outputs": [
        {
          "internalType": "bool",
          "name": "",
          "type": "bool"
        }
      ],
      "stateMutability": "view",
      "type": "function"
    },
    {
      "inputs": [
        {
          "internalType": "address",
          "name": "owner",
          "type": "address"
        },
        {
          "internalType": "address",
          "name": "operator",
          "type": "address"
        }
      ],
      "name": "isApprovedForAll",
      "outputs": [
        {
          "internalType": "bool",
          "name": "",
          "type": "bool"
        }
      ],
      "stateMutability": "view",
      "type": "function"
    },
    {
      "inputs": [
        {
          "internalType": "address",
          "name": "forwarder",
          "type": "address"
        }
      ],
      "name": "isTrustedForwarder",
      "outputs": [
        {
          "internalType": "bool",
          "name": "",
          "type": "bool"
        }
      ],
      "stateMutability": "view",
      "type": "function"
    },
    {
      "inputs": [
        {
          "internalType": "address",
          "name": "to",
          "type": "address"
        },
        {
          "internalType": "string",
          "name": "_tokenURI",
          "type": "string"
        }
      ],
      "name": "mint",
      "outputs": [
        {
          "internalType": "uint256",
          "name": "",
          "type": "uint256"
        }
      ],
      "stateMutability": "nonpayable",
      "type": "function"
    },
    {
      "inputs": [],
      "name": "name",
      "outputs": [
        {
          "internalType": "string",
          "name": "",
          "type": "string"
        }
      ],
      "stateMutability": "view",
      "type": "function"
    },
    {
      "inputs": [
        {
          "internalType": "uint256",
          "name": "tokenId",
          "type": "uint256"
        }
      ],
      "name": "ownerOf",
      "outputs": [
        {
          "internalType": "address",
          "name": "",
          "type": "address"
        }
      ],
      "stateMutability": "view",
      "type": "function"
    },
    {
      "inputs": [],
      "name": "pause",
      "outputs": [],
      "stateMutability": "nonpayable",
      "type": "function"
    },
    {
      "inputs": [],
      "name": "paused",
      "outputs": [
        {
          "internalType": "bool",
          "name": "",
          "type": "bool"
        }
      ],
      "stateMutability": "view",
      "type": "function"
    },
    {
      "inputs": [
        {
          "internalType": "bytes32",
          "name": "role",
          "type": "bytes32"
        },
        {
          "internalType": "address",
          "name": "account",
          "type": "address"
        }
      ],
      "name": "renounceRole",
      "outputs": [],
      "stateMutability": "nonpayable",
      "type": "function"
    },
    {
      "inputs": [
        {
          "internalType": "bytes32",
          "name": "role",
          "type": "bytes32"
        },
        {
          "internalType": "address",
          "name": "account",
          "type": "address"
        }
      ],
      "name": "revokeRole",
      "outputs": [],
      "stateMutability": "nonpayable",
      "type": "function"
    },
    {
      "inputs": [
        {
          "internalType": "uint256",
          "name": "tokenId",
          "type": "uint256"
        },
        {
          "internalType": "uint256",
          "name": "salePrice",
          "type": "uint256"
        }
      ],
      "name": "royaltyInfo",
      "outputs": [
        {
          "internalType": "address",
          "name": "receiver",
          "type": "address"
        },
        {
          "internalType": "uint256",
          "name": "royaltyAmount",
          "type": "uint256"
        }
      ],
      "stateMutability": "view",
      "type": "function"
    },
    {
      "inputs": [
        {
          "internalType": "address",
          "name": "from",
          "type": "address"
        },
        {
          "internalType": "address",
          "name": "to",
          "type": "address"
        },
        {
          "internalType": "uint256",
          "name": "tokenId",
          "type": "uint256"
        }
      ],
      "name": "safeTransferFrom",
      "outputs": [],
      "stateMutability": "nonpayable",
      "type": "function"
    },
    {
      "inputs": [
        {
          "internalType": "address",
          "name": "from",
          "type": "address"
        },
        {
          "internalType": "address",
          "name": "to",
          "type": "address"
        },
        {
          "internalType": "uint256",
          "name": "tokenId",
          "type": "uint256"
        },
        {
          "internalType": "bytes",
          "name": "_data",
          "type": "bytes"
        }
      ],
      "name": "safeTransferFrom",
      "outputs": [],
      "stateMutability": "nonpayable",
      "type": "function"
    },
    {
      "inputs": [
        {
          "internalType": "address",
          "name": "operator",
          "type": "address"
        },
        {
          "internalType": "bool",
          "name": "approved",
          "type": "bool"
        }
      ],
      "name": "setApprovalForAll",
      "outputs": [],
      "stateMutability": "nonpayable",
      "type": "function"
    },
    {
      "inputs": [
        {
          "internalType": "uint256",
          "name": "tokenId",
          "type": "uint256"
        },
        {
          "internalType": "address",
          "name": "recipient",
          "type": "address"
        },
        {
          "internalType": "uint256",
          "name": "value",
          "type": "uint256"
        }
      ],
      "name": "setTokenRoyalty",
      "outputs": [],
      "stateMutability": "nonpayable",
      "type": "function"
    },
    {
      "inputs": [
        {
          "internalType": "bytes4",
          "name": "interfaceId",
          "type": "bytes4"
        }
      ],
      "name": "supportsInterface",
      "outputs": [
        {
          "internalType": "bool",
          "name": "",
          "type": "bool"
        }
      ],
      "stateMutability": "view",
      "type": "function"
    },
    {
      "inputs": [],
      "name": "symbol",
      "outputs": [
        {
          "internalType": "string",
          "name": "",
          "type": "string"
        }
      ],
      "stateMutability": "view",
      "type": "function"
    },
    {
      "inputs": [
        {
          "internalType": "uint256",
          "name": "index",
          "type": "uint256"
        }
      ],
      "name": "tokenByIndex",
      "outputs": [
        {
          "internalType": "uint256",
          "name": "",
          "type": "uint256"
        }
      ],
      "stateMutability": "view",
      "type": "function"
    },
    {
      "inputs": [
        {
          "internalType": "address",
          "name": "owner",
          "type": "address"
        },
        {
          "internalType": "uint256",
          "name": "index",
          "type": "uint256"
        }
      ],
      "name": "tokenOfOwnerByIndex",
      "outputs": [
        {
          "internalType": "uint256",
          "name": "",
          "type": "uint256"
        }
      ],
      "stateMutability": "view",
      "type": "function"
    },
    {
      "inputs": [
        {
          "internalType": "uint256",
          "name": "tokenId",
          "type": "uint256"
        }
      ],
      "name": "tokenURI",
      "outputs": [
        {
          "internalType": "string",
          "name": "",
          "type": "string"
        }
      ],
      "stateMutability": "view",
      "type": "function"
    },
    {
      "inputs": [],
      "name": "totalSupply",
      "outputs": [
        {
          "internalType": "uint256",
          "name": "",
          "type": "uint256"
        }
      ],
      "stateMutability": "view",
      "type": "function"
    },
    {
      "inputs": [
        {
          "internalType": "address",
          "name": "from",
          "type": "address"
        },
        {
          "internalType": "address",
          "name": "to",
          "type": "address"
        },
        {
          "internalType": "uint256",
          "name": "tokenId",
          "type": "uint256"
        }
      ],
      "name": "transferFrom",
      "outputs": [],
      "stateMutability": "nonpayable",
      "type": "function"
    },
    {
      "inputs": [],
      "name": "unpause",
      "outputs": [],
      "stateMutability": "nonpayable",
      "type": "function"
    }
  ],
  "bytecode": "0x60806040523480156200001157600080fd5b5060405162005d9c38038062005d9c83398181016040528101906200003791906200071a565b808484848282816002908051906020019062000055929190620005e1565b5080600390805190602001906200006e929190620005e1565b5050506000600c60006101000a81548160ff021916908315150217905550620000a463c155531d60e01b620001b260201b60201c565b8060119080519060200190620000bc929190620005e1565b50620000e16000801b620000d56200028b60201b60201c565b620002a760201b60201c565b620001227f9f2df0fed2c77648de5860a4cc508cd0818c85b8b8a1ab4ceeef8d981c8956a6620001166200028b60201b60201c565b620002a760201b60201c565b620001637f65d7a28e3265b37a6474929f336521b332c1681b933f6cb9f3376673440d862a620001576200028b60201b60201c565b620002a760201b60201c565b50505080601260006101000a81548173ffffffffffffffffffffffffffffffffffffffff021916908373ffffffffffffffffffffffffffffffffffffffff1602179055505050505050620009d9565b63ffffffff60e01b817bffffffffffffffffffffffffffffffffffffffffffffffffffffffff191614156200021e576040517f08c379a0000000000000000000000000000000000000000000000000000000008152600401620002159062000813565b60405180910390fd5b6001600e6000837bffffffffffffffffffffffffffffffffffffffffffffffffffffffff19167bffffffffffffffffffffffffffffffffffffffffffffffffffffffff1916815260200190815260200160002060006101000a81548160ff02191690831515021790555050565b6000620002a2620002ef60201b620015241760201c565b905090565b620002be82826200033960201b620015561760201c565b620002ea81600160008581526020019081526020016000206200034f60201b620015641790919060201c565b505050565b600062000302336200038760201b60201c565b156200031857601436033560601c905062000335565b6200032d620003e160201b620015941760201c565b905062000336565b5b90565b6200034b8282620003e960201b60201c565b5050565b60006200037f836000018373ffffffffffffffffffffffffffffffffffffffff1660001b620004da60201b60201c565b905092915050565b6000601260009054906101000a900473ffffffffffffffffffffffffffffffffffffffff1673ffffffffffffffffffffffffffffffffffffffff168273ffffffffffffffffffffffffffffffffffffffff16149050919050565b600033905090565b620003fb82826200055460201b60201c565b620004d657600160008084815260200190815260200160002060000160008373ffffffffffffffffffffffffffffffffffffffff1673ffffffffffffffffffffffffffffffffffffffff16815260200190815260200160002060006101000a81548160ff0219169083151502179055506200047b6200028b60201b60201c565b73ffffffffffffffffffffffffffffffffffffffff168173ffffffffffffffffffffffffffffffffffffffff16837f2f8788117e7eff1d82e926ec794901d17c78024a50270940304540a733656f0d60405160405180910390a45b5050565b6000620004ee8383620005be60201b60201c565b620005495782600001829080600181540180825580915050600190039060005260206000200160009091909190915055826000018054905083600101600084815260200190815260200160002081905550600190506200054e565b600090505b92915050565b600080600084815260200190815260200160002060000160008373ffffffffffffffffffffffffffffffffffffffff1673ffffffffffffffffffffffffffffffffffffffff16815260200190815260200160002060009054906101000a900460ff16905092915050565b600080836001016000848152602001908152602001600020541415905092915050565b828054620005ef906200092b565b90600052602060002090601f0160209004810192826200061357600085556200065f565b82601f106200062e57805160ff19168380011785556200065f565b828001600101855582156200065f579182015b828111156200065e57825182559160200191906001019062000641565b5b5090506200066e919062000672565b5090565b5b808211156200068d57600081600090555060010162000673565b5090565b6000620006a8620006a28462000869565b62000835565b905082815260208101848484011115620006c157600080fd5b620006ce848285620008f5565b509392505050565b600081519050620006e781620009bf565b92915050565b600082601f830112620006ff57600080fd5b81516200071184826020860162000691565b91505092915050565b600080600080608085870312156200073157600080fd5b600085015167ffffffffffffffff8111156200074c57600080fd5b6200075a87828801620006ed565b945050602085015167ffffffffffffffff8111156200077857600080fd5b6200078687828801620006ed565b935050604085015167ffffffffffffffff811115620007a457600080fd5b620007b287828801620006ed565b9250506060620007c587828801620006d6565b91505092959194509250565b6000620007e0601c836200089c565b91507f4552433136353a20696e76616c696420696e74657266616365206964000000006000830152602082019050919050565b600060208201905081810360008301526200082e81620007d1565b9050919050565b6000604051905081810181811067ffffffffffffffff821117156200085f576200085e62000990565b5b8060405250919050565b600067ffffffffffffffff82111562000887576200088662000990565b5b601f19601f8301169050602081019050919050565b600082825260208201905092915050565b6000620008ba82620008d5565b9050919050565b6000620008ce82620008ad565b9050919050565b600073ffffffffffffffffffffffffffffffffffffffff82169050919050565b60005b8381101562000915578082015181840152602081019050620008f8565b8381111562000925576000848401525b50505050565b600060028204905060018216806200094457607f821691505b602082108114156200095b576200095a62000961565b5b50919050565b7f4e487b7100000000000000000000000000000000000000000000000000000000600052602260045260246000fd5b7f4e487b7100000000000000000000000000000000000000000000000000000000600052604160045260246000fd5b620009ca81620008c1565b8114620009d657600080fd5b50565b6153b380620009e96000396000f3fe608060405234801561001057600080fd5b50600436106102065760003560e01c80636352211e1161011a578063a22cb465116100ad578063d0def5211161007c578063d0def52114610622578063d539139314610652578063d547741f14610670578063e63ab1e91461068c578063e985e9c5146106aa57610206565b8063a22cb4651461058a578063b88d4fde146105a6578063c87b56dd146105c2578063ca15c873146105f257610206565b806391d14854116100e957806391d148541461050257806395d89b41146105325780639713c80714610550578063a217fddf1461056c57610206565b80636352211e1461046857806370a08231146104985780638456cb59146104c85780639010d07c146104d257610206565b80632f2ff15d1161019d57806342842e0e1161016c57806342842e0e146103b257806342966c68146103ce5780634f6ccce7146103ea578063572b6c051461041a5780635c975abb1461044a57610206565b80632f2ff15d146103405780632f745c591461035c57806336568abe1461038c5780633f4ba83a146103a857610206565b806318160ddd116101d957806318160ddd146102a557806323b872dd146102c3578063248a9ca3146102df5780632a55205a1461030f57610206565b806301ffc9a71461020b57806306fdde031461023b578063081812fc14610259578063095ea7b314610289575b600080fd5b61022560048036038101906102209190613c4e565b6106da565b6040516102329190614a8b565b60405180910390f35b6102436106ec565b6040516102509190614ac1565b60405180910390f35b610273600480360381019061026e9190613ca0565b61077e565b60405161028091906149fb565b60405180910390f35b6102a3600480360381019061029e9190613b71565b610803565b005b6102ad61091b565b6040516102ba9190614ea3565b60405180910390f35b6102dd60048036038101906102d89190613a17565b610928565b005b6102f960048036038101906102f49190613bad565b610988565b6040516103069190614aa6565b60405180910390f35b61032960048036038101906103249190613d18565b6109a7565b604051610337929190614a62565b60405180910390f35b61035a60048036038101906103559190613bd6565b610a5a565b005b61037660048036038101906103719190613b71565b610a8e565b6040516103839190614ea3565b60405180910390f35b6103a660048036038101906103a19190613bd6565b610b33565b005b6103b0610b67565b005b6103cc60048036038101906103c79190613a17565b610be1565b005b6103e860048036038101906103e39190613ca0565b610c01565b005b61040460048036038101906103ff9190613ca0565b610c5d565b6040516104119190614ea3565b60405180910390f35b610434600480360381019061042f91906139b2565b610cf4565b6040516104419190614a8b565b60405180910390f35b610452610d4e565b60405161045f9190614a8b565b60405180910390f35b610482600480360381019061047d9190613ca0565b610d65565b60405161048f91906149fb565b60405180910390f35b6104b260048036038101906104ad91906139b2565b610e17565b6040516104bf9190614ea3565b60405180910390f35b6104d0610ecf565b005b6104ec60048036038101906104e79190613c12565b610f49565b6040516104f991906149fb565b60405180910390f35b61051c60048036038101906105179190613bd6565b610f78565b6040516105299190614a8b565b60405180910390f35b61053a610fe2565b6040516105479190614ac1565b60405180910390f35b61056a60048036038101906105659190613cc9565b611074565b005b610574611140565b6040516105819190614aa6565b60405180910390f35b6105a4600480360381019061059f9190613ae1565b611147565b005b6105c060048036038101906105bb9190613a66565b6112c8565b005b6105dc60048036038101906105d79190613ca0565b61132a565b6040516105e99190614ac1565b60405180910390f35b61060c60048036038101906106079190613bad565b61133c565b6040516106199190614ea3565b60405180910390f35b61063c60048036038101906106379190613b1d565b611360565b6040516106499190614ea3565b60405180910390f35b61065a611414565b6040516106679190614aa6565b60405180910390f35b61068a60048036038101906106859190613bd6565b611438565b005b61069461146c565b6040516106a19190614aa6565b60405180910390f35b6106c460048036038101906106bf91906139db565b611490565b6040516106d19190614a8b565b60405180910390f35b60006106e58261159c565b9050919050565b6060600280546106fb90615191565b80601f016020809104026020016040519081016040528092919081815260200182805461072790615191565b80156107745780601f1061074957610100808354040283529160200191610774565b820191906000526020600020905b81548152906001019060200180831161075757829003601f168201915b5050505050905090565b6000610789826115ae565b6107c8576040517f08c379a00000000000000000000000000000000000000000000000000000000081526004016107bf90614d23565b60405180910390fd5b6006600083815260200190815260200160002060009054906101000a900473ffffffffffffffffffffffffffffffffffffffff169050919050565b600061080e82610d65565b90508073ffffffffffffffffffffffffffffffffffffffff168373ffffffffffffffffffffffffffffffffffffffff16141561087f576040517f08c379a000000000000000000000000000000000000000000000000000000000815260040161087690614da3565b60405180910390fd5b8073ffffffffffffffffffffffffffffffffffffffff1661089e61161a565b73ffffffffffffffffffffffffffffffffffffffff1614806108cd57506108cc816108c761161a565b611490565b5b61090c576040517f08c379a000000000000000000000000000000000000000000000000000000000815260040161090390614c43565b60405180910390fd5b6109168383611629565b505050565b6000600a80549050905090565b61093961093361161a565b826116e2565b610978576040517f08c379a000000000000000000000000000000000000000000000000000000000815260040161096f90614e03565b60405180910390fd5b6109838383836117c0565b505050565b6000806000838152602001908152602001600020600101549050919050565b6000806000600f60008681526020019081526020016000206040518060400160405290816000820160009054906101000a900473ffffffffffffffffffffffffffffffffffffffff1673ffffffffffffffffffffffffffffffffffffffff1673ffffffffffffffffffffffffffffffffffffffff16815260200160018201548152505090508060000151612710826020015186610a449190615019565b610a4e9190614fe8565b92509250509250929050565b610a648282611a1c565b610a89816001600085815260200190815260200160002061156490919063ffffffff16565b505050565b6000610a9983610e17565b8210610ada576040517f08c379a0000000000000000000000000000000000000000000000000000000008152600401610ad190614b43565b60405180910390fd5b600860008473ffffffffffffffffffffffffffffffffffffffff1673ffffffffffffffffffffffffffffffffffffffff168152602001908152602001600020600083815260200190815260200160002054905092915050565b610b3d8282611a45565b610b628160016000858152602001908152602001600020611ac890919063ffffffff16565b505050565b610b987f65d7a28e3265b37a6474929f336521b332c1681b933f6cb9f3376673440d862a610b9361161a565b610f78565b610bd7576040517f08c379a0000000000000000000000000000000000000000000000000000000008152600401610bce90614c03565b60405180910390fd5b610bdf611af8565b565b610bfc838383604051806020016040528060008152506112c8565b505050565b610c12610c0c61161a565b826116e2565b610c51576040517f08c379a0000000000000000000000000000000000000000000000000000000008152600401610c4890614e63565b60405180910390fd5b610c5a81611b9a565b50565b6000610c6761091b565b8210610ca8576040517f08c379a0000000000000000000000000000000000000000000000000000000008152600401610c9f90614e23565b60405180910390fd5b600a8281548110610ce2577f4e487b7100000000000000000000000000000000000000000000000000000000600052603260045260246000fd5b90600052602060002001549050919050565b6000601260009054906101000a900473ffffffffffffffffffffffffffffffffffffffff1673ffffffffffffffffffffffffffffffffffffffff168273ffffffffffffffffffffffffffffffffffffffff16149050919050565b6000600c60009054906101000a900460ff16905090565b6000806004600084815260200190815260200160002060009054906101000a900473ffffffffffffffffffffffffffffffffffffffff169050600073ffffffffffffffffffffffffffffffffffffffff168173ffffffffffffffffffffffffffffffffffffffff161415610e0e576040517f08c379a0000000000000000000000000000000000000000000000000000000008152600401610e0590614c83565b60405180910390fd5b80915050919050565b60008073ffffffffffffffffffffffffffffffffffffffff168273ffffffffffffffffffffffffffffffffffffffff161415610e88576040517f08c379a0000000000000000000000000000000000000000000000000000000008152600401610e7f90614c63565b60405180910390fd5b600560008373ffffffffffffffffffffffffffffffffffffffff1673ffffffffffffffffffffffffffffffffffffffff168152602001908152602001600020549050919050565b610f007f65d7a28e3265b37a6474929f336521b332c1681b933f6cb9f3376673440d862a610efb61161a565b610f78565b610f3f576040517f08c379a0000000000000000000000000000000000000000000000000000000008152600401610f3690614e43565b60405180910390fd5b610f47611ba6565b565b6000610f708260016000868152602001908152602001600020611c4990919063ffffffff16565b905092915050565b600080600084815260200190815260200160002060000160008373ffffffffffffffffffffffffffffffffffffffff1673ffffffffffffffffffffffffffffffffffffffff16815260200190815260200160002060009054906101000a900460ff16905092915050565b606060038054610ff190615191565b80601f016020809104026020016040519081016040528092919081815260200182805461101d90615191565b801561106a5780601f1061103f5761010080835404028352916020019161106a565b820191906000526020600020905b81548152906001019060200180831161104d57829003601f168201915b5050505050905090565b6110a57f9f2df0fed2c77648de5860a4cc508cd0818c85b8b8a1ab4ceeef8d981c8956a66110a061161a565b610f78565b6110e4576040517f08c379a00000000000000000000000000000000000000000000000000000000081526004016110db90614dc3565b60405180910390fd5b6110ee6010611c63565b831115611130576040517f08c379a000000000000000000000000000000000000000000000000000000000815260040161112790614de3565b60405180910390fd5b61113b838383611c71565b505050565b6000801b81565b61114f61161a565b73ffffffffffffffffffffffffffffffffffffffff168273ffffffffffffffffffffffffffffffffffffffff1614156111bd576040517f08c379a00000000000000000000000000000000000000000000000000000000081526004016111b490614bc3565b60405180910390fd5b80600760006111ca61161a565b73ffffffffffffffffffffffffffffffffffffffff1673ffffffffffffffffffffffffffffffffffffffff16815260200190815260200160002060008473ffffffffffffffffffffffffffffffffffffffff1673ffffffffffffffffffffffffffffffffffffffff16815260200190815260200160002060006101000a81548160ff0219169083151502179055508173ffffffffffffffffffffffffffffffffffffffff1661127761161a565b73ffffffffffffffffffffffffffffffffffffffff167f17307eab39ab6107e8899845ad3d59bd9653f200f220920489ca2b5937696c31836040516112bc9190614a8b565b60405180910390a35050565b6112d96112d361161a565b836116e2565b611318576040517f08c379a000000000000000000000000000000000000000000000000000000000815260040161130f90614e03565b60405180910390fd5b61132484848484611d4d565b50505050565b606061133582611da9565b9050919050565b600061135960016000848152602001908152602001600020611efb565b9050919050565b60006113937f9f2df0fed2c77648de5860a4cc508cd0818c85b8b8a1ab4ceeef8d981c8956a661138e61161a565b610f78565b6113d2576040517f08c379a00000000000000000000000000000000000000000000000000000000081526004016113c990614d43565b60405180910390fd5b6113dc6010611f10565b6113ef836113ea6010611c63565b611f26565b6114026113fc6010611c63565b83611f44565b61140c6010611c63565b905092915050565b7f9f2df0fed2c77648de5860a4cc508cd0818c85b8b8a1ab4ceeef8d981c8956a681565b6114428282611fb8565b6114678160016000858152602001908152602001600020611ac890919063ffffffff16565b505050565b7f65d7a28e3265b37a6474929f336521b332c1681b933f6cb9f3376673440d862a81565b6000600760008473ffffffffffffffffffffffffffffffffffffffff1673ffffffffffffffffffffffffffffffffffffffff16815260200190815260200160002060008373ffffffffffffffffffffffffffffffffffffffff1673ffffffffffffffffffffffffffffffffffffffff16815260200190815260200160002060009054906101000a900460ff16905092915050565b600061152f33610cf4565b1561154357601436033560601c9050611552565b61154b611594565b9050611553565b5b90565b6115608282611fe1565b5050565b600061158c836000018373ffffffffffffffffffffffffffffffffffffffff1660001b6120c1565b905092915050565b600033905090565b60006115a782612131565b9050919050565b60008073ffffffffffffffffffffffffffffffffffffffff166004600084815260200190815260200160002060009054906101000a900473ffffffffffffffffffffffffffffffffffffffff1673ffffffffffffffffffffffffffffffffffffffff1614159050919050565b6000611624611524565b905090565b816006600083815260200190815260200160002060006101000a81548173ffffffffffffffffffffffffffffffffffffffff021916908373ffffffffffffffffffffffffffffffffffffffff160217905550808273ffffffffffffffffffffffffffffffffffffffff1661169c83610d65565b73ffffffffffffffffffffffffffffffffffffffff167f8c5be1e5ebec7d5bd14f71427d1e84f3dd0314c0f7b2291e5b200ac8c7c3b92560405160405180910390a45050565b60006116ed826115ae565b61172c576040517f08c379a000000000000000000000000000000000000000000000000000000000815260040161172390614be3565b60405180910390fd5b600061173783610d65565b90508073ffffffffffffffffffffffffffffffffffffffff168473ffffffffffffffffffffffffffffffffffffffff1614806117a657508373ffffffffffffffffffffffffffffffffffffffff1661178e8461077e565b73ffffffffffffffffffffffffffffffffffffffff16145b806117b757506117b68185611490565b5b91505092915050565b8273ffffffffffffffffffffffffffffffffffffffff166117e082610d65565b73ffffffffffffffffffffffffffffffffffffffff1614611836576040517f08c379a000000000000000000000000000000000000000000000000000000000815260040161182d90614d63565b60405180910390fd5b600073ffffffffffffffffffffffffffffffffffffffff168273ffffffffffffffffffffffffffffffffffffffff1614156118a6576040517f08c379a000000000000000000000000000000000000000000000000000000000815260040161189d90614ba3565b60405180910390fd5b6118b18383836121a9565b6118bc600082611629565b6001600560008573ffffffffffffffffffffffffffffffffffffffff1673ffffffffffffffffffffffffffffffffffffffff168152602001908152602001600020600082825461190c9190615073565b925050819055506001600560008473ffffffffffffffffffffffffffffffffffffffff1673ffffffffffffffffffffffffffffffffffffffff16815260200190815260200160002060008282546119639190614f92565b92505081905550816004600083815260200190815260200160002060006101000a81548173ffffffffffffffffffffffffffffffffffffffff021916908373ffffffffffffffffffffffffffffffffffffffff160217905550808273ffffffffffffffffffffffffffffffffffffffff168473ffffffffffffffffffffffffffffffffffffffff167fddf252ad1be2c89b69c2b068fc378daa952ba7f163c4a11628f55a4df523b3ef60405160405180910390a4505050565b611a2582610988565b611a3681611a3161161a565b6121b9565b611a408383611fe1565b505050565b611a4d61161a565b73ffffffffffffffffffffffffffffffffffffffff168173ffffffffffffffffffffffffffffffffffffffff1614611aba576040517f08c379a0000000000000000000000000000000000000000000000000000000008152600401611ab190614e83565b60405180910390fd5b611ac48282612256565b5050565b6000611af0836000018373ffffffffffffffffffffffffffffffffffffffff1660001b612337565b905092915050565b611b00610d4e565b611b3f576040517f08c379a0000000000000000000000000000000000000000000000000000000008152600401611b3690614b23565b60405180910390fd5b6000600c60006101000a81548160ff0219169083151502179055507f5db9ee0a495bf2e6ff9c91a7834c1ba4fdd244a5e8aa4e537bd38aeae4b073aa611b8361161a565b604051611b9091906149fb565b60405180910390a1565b611ba3816124bd565b50565b611bae610d4e565b15611bee576040517f08c379a0000000000000000000000000000000000000000000000000000000008152600401611be590614c23565b60405180910390fd5b6001600c60006101000a81548160ff0219169083151502179055507f62e78cea01bee320cd4e420270b5ea74000d11b0c9f74754ebdbfc544b05a258611c3261161a565b604051611c3f91906149fb565b60405180910390a1565b6000611c588360000183612510565b60001c905092915050565b600081600001549050919050565b612710811115611cb6576040517f08c379a0000000000000000000000000000000000000000000000000000000008152600401611cad90614d03565b60405180910390fd5b60405180604001604052808373ffffffffffffffffffffffffffffffffffffffff16815260200182815250600f600085815260200190815260200160002060008201518160000160006101000a81548173ffffffffffffffffffffffffffffffffffffffff021916908373ffffffffffffffffffffffffffffffffffffffff16021790555060208201518160010155905050505050565b611d588484846117c0565b611d6484848484612561565b611da3576040517f08c379a0000000000000000000000000000000000000000000000000000000008152600401611d9a90614b63565b60405180910390fd5b50505050565b6060611db4826115ae565b611df3576040517f08c379a0000000000000000000000000000000000000000000000000000000008152600401611dea90614ce3565b60405180910390fd5b6000600d60008481526020019081526020016000208054611e1390615191565b80601f0160208091040260200160405190810160405280929190818152602001828054611e3f90615191565b8015611e8c5780601f10611e6157610100808354040283529160200191611e8c565b820191906000526020600020905b815481529060010190602001808311611e6f57829003601f168201915b505050505090506000611e9d6126f8565b9050600081511415611eb3578192505050611ef6565b600082511115611ee8578082604051602001611ed092919061499d565b60405160208183030381529060405292505050611ef6565b611ef18461270f565b925050505b919050565b6000611f09826000016127b6565b9050919050565b6001816000016000828254019250508190555050565b611f408282604051806020016040528060008152506127c7565b5050565b611f4d826115ae565b611f8c576040517f08c379a0000000000000000000000000000000000000000000000000000000008152600401611f8390614ca3565b60405180910390fd5b80600d60008481526020019081526020016000209080519060200190611fb3929190613781565b505050565b611fc182610988565b611fd281611fcd61161a565b6121b9565b611fdc8383612256565b505050565b611feb8282610f78565b6120bd57600160008084815260200190815260200160002060000160008373ffffffffffffffffffffffffffffffffffffffff1673ffffffffffffffffffffffffffffffffffffffff16815260200190815260200160002060006101000a81548160ff02191690831515021790555061206261161a565b73ffffffffffffffffffffffffffffffffffffffff168173ffffffffffffffffffffffffffffffffffffffff16837f2f8788117e7eff1d82e926ec794901d17c78024a50270940304540a733656f0d60405160405180910390a45b5050565b60006120cd8383612822565b61212657826000018290806001815401808255809150506001900390600052602060002001600090919091909150558260000180549050836001016000848152602001908152602001600020819055506001905061212b565b600090505b92915050565b600061213c82612845565b806121a25750600e6000837bffffffffffffffffffffffffffffffffffffffffffffffffffffffff19167bffffffffffffffffffffffffffffffffffffffffffffffffffffffff1916815260200190815260200160002060009054906101000a900460ff165b9050919050565b6121b48383836128bf565b505050565b6121c38282610f78565b612252576121e88173ffffffffffffffffffffffffffffffffffffffff166014612917565b6121f68360001c6020612917565b6040516020016122079291906149c1565b6040516020818303038152906040526040517f08c379a00000000000000000000000000000000000000000000000000000000081526004016122499190614ac1565b60405180910390fd5b5050565b6122608282610f78565b1561233357600080600084815260200190815260200160002060000160008373ffffffffffffffffffffffffffffffffffffffff1673ffffffffffffffffffffffffffffffffffffffff16815260200190815260200160002060006101000a81548160ff0219169083151502179055506122d861161a565b73ffffffffffffffffffffffffffffffffffffffff168173ffffffffffffffffffffffffffffffffffffffff16837ff6391f5c32d9c69d2a47ea670b442974b53935d1edc7fd64eb21e047a839171b60405160405180910390a45b5050565b600080836001016000848152602001908152602001600020549050600081146124b15760006001826123699190615073565b90506000600186600001805490506123819190615073565b905081811461243c5760008660000182815481106123c8577f4e487b7100000000000000000000000000000000000000000000000000000000600052603260045260246000fd5b9060005260206000200154905080876000018481548110612412577f4e487b7100000000000000000000000000000000000000000000000000000000600052603260045260246000fd5b90600052602060002001819055508387600101600083815260200190815260200160002081905550505b85600001805480612476577f4e487b7100000000000000000000000000000000000000000000000000000000600052603160045260246000fd5b6001900381819060005260206000200160009055905585600101600086815260200190815260200160002060009055600193505050506124b7565b60009150505b92915050565b6124c681612c11565b6000600d600083815260200190815260200160002080546124e690615191565b90501461250d57600d6000828152602001908152602001600020600061250c9190613807565b5b50565b600082600001828154811061254e577f4e487b7100000000000000000000000000000000000000000000000000000000600052603260045260246000fd5b9060005260206000200154905092915050565b60006125828473ffffffffffffffffffffffffffffffffffffffff16612d22565b156126eb578373ffffffffffffffffffffffffffffffffffffffff1663150b7a026125ab61161a565b8786866040518563ffffffff1660e01b81526004016125cd9493929190614a16565b602060405180830381600087803b1580156125e757600080fd5b505af192505050801561261857506040513d601f19601f820116820180604052508101906126159190613c77565b60015b61269b573d8060008114612648576040519150601f19603f3d011682016040523d82523d6000602084013e61264d565b606091505b50600081511415612693576040517f08c379a000000000000000000000000000000000000000000000000000000000815260040161268a90614b63565b60405180910390fd5b805181602001fd5b63150b7a0260e01b7bffffffffffffffffffffffffffffffffffffffffffffffffffffffff1916817bffffffffffffffffffffffffffffffffffffffffffffffffffffffff1916149150506126f0565b600190505b949350505050565b606060405180602001604052806000815250905090565b606061271a826115ae565b612759576040517f08c379a000000000000000000000000000000000000000000000000000000000815260040161275090614d83565b60405180910390fd5b60006127636126f8565b9050600081511161278357604051806020016040528060008152506127ae565b8061278d84612d35565b60405160200161279e92919061499d565b6040516020818303038152906040525b915050919050565b600081600001805490509050919050565b6127d18383612ee2565b6127de6000848484612561565b61281d576040517f08c379a000000000000000000000000000000000000000000000000000000000815260040161281490614b63565b60405180910390fd5b505050565b600080836001016000848152602001908152602001600020541415905092915050565b60007f780e9d63000000000000000000000000000000000000000000000000000000007bffffffffffffffffffffffffffffffffffffffffffffffffffffffff1916827bffffffffffffffffffffffffffffffffffffffffffffffffffffffff191614806128b857506128b7826130b0565b5b9050919050565b6128ca838383613192565b6128d2610d4e565b15612912576040517f08c379a000000000000000000000000000000000000000000000000000000000815260040161290990614b03565b60405180910390fd5b505050565b60606000600283600261292a9190615019565b6129349190614f92565b67ffffffffffffffff811115612973577f4e487b7100000000000000000000000000000000000000000000000000000000600052604160045260246000fd5b6040519080825280601f01601f1916602001820160405280156129a55781602001600182028036833780820191505090505b5090507f300000000000000000000000000000000000000000000000000000000000000081600081518110612a03577f4e487b7100000000000000000000000000000000000000000000000000000000600052603260045260246000fd5b60200101907effffffffffffffffffffffffffffffffffffffffffffffffffffffffffffff1916908160001a9053507f780000000000000000000000000000000000000000000000000000000000000081600181518110612a8d577f4e487b7100000000000000000000000000000000000000000000000000000000600052603260045260246000fd5b60200101907effffffffffffffffffffffffffffffffffffffffffffffffffffffffffffff1916908160001a90535060006001846002612acd9190615019565b612ad79190614f92565b90505b6001811115612bc3577f3031323334353637383961626364656600000000000000000000000000000000600f861660108110612b3f577f4e487b7100000000000000000000000000000000000000000000000000000000600052603260045260246000fd5b1a60f81b828281518110612b7c577f4e487b7100000000000000000000000000000000000000000000000000000000600052603260045260246000fd5b60200101907effffffffffffffffffffffffffffffffffffffffffffffffffffffffffffff1916908160001a905350600485901c945080612bbc90615167565b9050612ada565b5060008414612c07576040517f08c379a0000000000000000000000000000000000000000000000000000000008152600401612bfe90614ae3565b60405180910390fd5b8091505092915050565b6000612c1c82610d65565b9050612c2a816000846121a9565b612c35600083611629565b6001600560008373ffffffffffffffffffffffffffffffffffffffff1673ffffffffffffffffffffffffffffffffffffffff1681526020019081526020016000206000828254612c859190615073565b925050819055506004600083815260200190815260200160002060006101000a81549073ffffffffffffffffffffffffffffffffffffffff021916905581600073ffffffffffffffffffffffffffffffffffffffff168273ffffffffffffffffffffffffffffffffffffffff167fddf252ad1be2c89b69c2b068fc378daa952ba7f163c4a11628f55a4df523b3ef60405160405180910390a45050565b600080823b905060008111915050919050565b60606000821415612d7d576040518060400160405280600181526020017f30000000000000000000000000000000000000000000000000000000000000008152509050612edd565b600082905060005b60008214612daf578080612d98906151c3565b915050600a82612da89190614fe8565b9150612d85565b60008167ffffffffffffffff811115612df1577f4e487b7100000000000000000000000000000000000000000000000000000000600052604160045260246000fd5b6040519080825280601f01601f191660200182016040528015612e235781602001600182028036833780820191505090505b5090505b60008514612ed657600182612e3c9190615073565b9150600a85612e4b919061520c565b6030612e579190614f92565b60f81b818381518110612e93577f4e487b7100000000000000000000000000000000000000000000000000000000600052603260045260246000fd5b60200101907effffffffffffffffffffffffffffffffffffffffffffffffffffffffffffff1916908160001a905350600a85612ecf9190614fe8565b9450612e27565b8093505050505b919050565b600073ffffffffffffffffffffffffffffffffffffffff168273ffffffffffffffffffffffffffffffffffffffff161415612f52576040517f08c379a0000000000000000000000000000000000000000000000000000000008152600401612f4990614cc3565b60405180910390fd5b612f5b816115ae565b15612f9b576040517f08c379a0000000000000000000000000000000000000000000000000000000008152600401612f9290614b83565b60405180910390fd5b612fa7600083836121a9565b6001600560008473ffffffffffffffffffffffffffffffffffffffff1673ffffffffffffffffffffffffffffffffffffffff1681526020019081526020016000206000828254612ff79190614f92565b92505081905550816004600083815260200190815260200160002060006101000a81548173ffffffffffffffffffffffffffffffffffffffff021916908373ffffffffffffffffffffffffffffffffffffffff160217905550808273ffffffffffffffffffffffffffffffffffffffff16600073ffffffffffffffffffffffffffffffffffffffff167fddf252ad1be2c89b69c2b068fc378daa952ba7f163c4a11628f55a4df523b3ef60405160405180910390a45050565b60007f80ac58cd000000000000000000000000000000000000000000000000000000007bffffffffffffffffffffffffffffffffffffffffffffffffffffffff1916827bffffffffffffffffffffffffffffffffffffffffffffffffffffffff1916148061317b57507f5b5e139f000000000000000000000000000000000000000000000000000000007bffffffffffffffffffffffffffffffffffffffffffffffffffffffff1916827bffffffffffffffffffffffffffffffffffffffffffffffffffffffff1916145b8061318b575061318a826132a6565b5b9050919050565b61319d838383613320565b600073ffffffffffffffffffffffffffffffffffffffff168373ffffffffffffffffffffffffffffffffffffffff1614156131e0576131db81613325565b61321f565b8173ffffffffffffffffffffffffffffffffffffffff168373ffffffffffffffffffffffffffffffffffffffff161461321e5761321d838261336e565b5b5b600073ffffffffffffffffffffffffffffffffffffffff168273ffffffffffffffffffffffffffffffffffffffff1614156132625761325d816134db565b6132a1565b8273ffffffffffffffffffffffffffffffffffffffff168273ffffffffffffffffffffffffffffffffffffffff16146132a05761329f828261361e565b5b5b505050565b60007f5a05180f000000000000000000000000000000000000000000000000000000007bffffffffffffffffffffffffffffffffffffffffffffffffffffffff1916827bffffffffffffffffffffffffffffffffffffffffffffffffffffffff1916148061331957506133188261369d565b5b9050919050565b505050565b600a80549050600b600083815260200190815260200160002081905550600a81908060018154018082558091505060019003906000526020600020016000909190919091505550565b6000600161337b84610e17565b6133859190615073565b905060006009600084815260200190815260200160002054905081811461346a576000600860008673ffffffffffffffffffffffffffffffffffffffff1673ffffffffffffffffffffffffffffffffffffffff168152602001908152602001600020600084815260200190815260200160002054905080600860008773ffffffffffffffffffffffffffffffffffffffff1673ffffffffffffffffffffffffffffffffffffffff168152602001908152602001600020600084815260200190815260200160002081905550816009600083815260200190815260200160002081905550505b6009600084815260200190815260200160002060009055600860008573ffffffffffffffffffffffffffffffffffffffff1673ffffffffffffffffffffffffffffffffffffffff16815260200190815260200160002060008381526020019081526020016000206000905550505050565b60006001600a805490506134ef9190615073565b90506000600b60008481526020019081526020016000205490506000600a8381548110613545577f4e487b7100000000000000000000000000000000000000000000000000000000600052603260045260246000fd5b9060005260206000200154905080600a838154811061358d577f4e487b7100000000000000000000000000000000000000000000000000000000600052603260045260246000fd5b906000526020600020018190555081600b600083815260200190815260200160002081905550600b600085815260200190815260200160002060009055600a805480613602577f4e487b7100000000000000000000000000000000000000000000000000000000600052603160045260246000fd5b6001900381819060005260206000200160009055905550505050565b600061362983610e17565b905081600860008573ffffffffffffffffffffffffffffffffffffffff1673ffffffffffffffffffffffffffffffffffffffff168152602001908152602001600020600083815260200190815260200160002081905550806009600084815260200190815260200160002081905550505050565b60007f7965db0b000000000000000000000000000000000000000000000000000000007bffffffffffffffffffffffffffffffffffffffffffffffffffffffff1916827bffffffffffffffffffffffffffffffffffffffffffffffffffffffff19161480613710575061370f82613717565b5b9050919050565b60007f01ffc9a7000000000000000000000000000000000000000000000000000000007bffffffffffffffffffffffffffffffffffffffffffffffffffffffff1916827bffffffffffffffffffffffffffffffffffffffffffffffffffffffff1916149050919050565b82805461378d90615191565b90600052602060002090601f0160209004810192826137af57600085556137f6565b82601f106137c857805160ff19168380011785556137f6565b828001600101855582156137f6579182015b828111156137f55782518255916020019190600101906137da565b5b5090506138039190613847565b5090565b50805461381390615191565b6000825580601f106138255750613844565b601f0160209004906000526020600020908101906138439190613847565b5b50565b5b80821115613860576000816000905550600101613848565b5090565b600061387761387284614eef565b614ebe565b90508281526020810184848401111561388f57600080fd5b61389a848285615125565b509392505050565b60006138b56138b084614f1f565b614ebe565b9050828152602081018484840111156138cd57600080fd5b6138d8848285615125565b509392505050565b6000813590506138ef8161530a565b92915050565b60008135905061390481615321565b92915050565b60008135905061391981615338565b92915050565b60008135905061392e8161534f565b92915050565b6000815190506139438161534f565b92915050565b600082601f83011261395a57600080fd5b813561396a848260208601613864565b91505092915050565b600082601f83011261398457600080fd5b81356139948482602086016138a2565b91505092915050565b6000813590506139ac81615366565b92915050565b6000602082840312156139c457600080fd5b60006139d2848285016138e0565b91505092915050565b600080604083850312156139ee57600080fd5b60006139fc858286016138e0565b9250506020613a0d858286016138e0565b9150509250929050565b600080600060608486031215613a2c57600080fd5b6000613a3a868287016138e0565b9350506020613a4b868287016138e0565b9250506040613a5c8682870161399d565b9150509250925092565b60008060008060808587031215613a7c57600080fd5b6000613a8a878288016138e0565b9450506020613a9b878288016138e0565b9350506040613aac8782880161399d565b925050606085013567ffffffffffffffff811115613ac957600080fd5b613ad587828801613949565b91505092959194509250565b60008060408385031215613af457600080fd5b6000613b02858286016138e0565b9250506020613b13858286016138f5565b9150509250929050565b60008060408385031215613b3057600080fd5b6000613b3e858286016138e0565b925050602083013567ffffffffffffffff811115613b5b57600080fd5b613b6785828601613973565b9150509250929050565b60008060408385031215613b8457600080fd5b6000613b92858286016138e0565b9250506020613ba38582860161399d565b9150509250929050565b600060208284031215613bbf57600080fd5b6000613bcd8482850161390a565b91505092915050565b60008060408385031215613be957600080fd5b6000613bf78582860161390a565b9250506020613c08858286016138e0565b9150509250929050565b60008060408385031215613c2557600080fd5b6000613c338582860161390a565b9250506020613c448582860161399d565b9150509250929050565b600060208284031215613c6057600080fd5b6000613c6e8482850161391f565b91505092915050565b600060208284031215613c8957600080fd5b6000613c9784828501613934565b91505092915050565b600060208284031215613cb257600080fd5b6000613cc08482850161399d565b91505092915050565b600080600060608486031215613cde57600080fd5b6000613cec8682870161399d565b9350506020613cfd868287016138e0565b9250506040613d0e8682870161399d565b9150509250925092565b60008060408385031215613d2b57600080fd5b6000613d398582860161399d565b9250506020613d4a8582860161399d565b9150509250929050565b613d5d816150a7565b82525050565b613d6c816150b9565b82525050565b613d7b816150c5565b82525050565b6000613d8c82614f4f565b613d968185614f65565b9350613da6818560208601615134565b613daf816152f9565b840191505092915050565b6000613dc582614f5a565b613dcf8185614f76565b9350613ddf818560208601615134565b613de8816152f9565b840191505092915050565b6000613dfe82614f5a565b613e088185614f87565b9350613e18818560208601615134565b80840191505092915050565b6000613e31602083614f76565b91507f537472696e67733a20686578206c656e67746820696e73756666696369656e746000830152602082019050919050565b6000613e71602b83614f76565b91507f4552433732315061757361626c653a20746f6b656e207472616e73666572207760008301527f68696c65207061757365640000000000000000000000000000000000000000006020830152604082019050919050565b6000613ed7601483614f76565b91507f5061757361626c653a206e6f74207061757365640000000000000000000000006000830152602082019050919050565b6000613f17602b83614f76565b91507f455243373231456e756d657261626c653a206f776e657220696e646578206f7560008301527f74206f6620626f756e64730000000000000000000000000000000000000000006020830152604082019050919050565b6000613f7d603283614f76565b91507f4552433732313a207472616e7366657220746f206e6f6e20455243373231526560008301527f63656976657220696d706c656d656e74657200000000000000000000000000006020830152604082019050919050565b6000613fe3601c83614f76565b91507f4552433732313a20746f6b656e20616c7265616479206d696e746564000000006000830152602082019050919050565b6000614023602483614f76565b91507f4552433732313a207472616e7366657220746f20746865207a65726f2061646460008301527f72657373000000000000000000000000000000000000000000000000000000006020830152604082019050919050565b6000614089601983614f76565b91507f4552433732313a20617070726f766520746f2063616c6c6572000000000000006000830152602082019050919050565b60006140c9602c83614f76565b91507f4552433732313a206f70657261746f7220717565727920666f72206e6f6e657860008301527f697374656e7420746f6b656e00000000000000000000000000000000000000006020830152604082019050919050565b600061412f603383614f76565b91507f45524337323157697468526f79616c74793a206d75737420686176652070617560008301527f73657220726f6c6520746f20756e7061757365000000000000000000000000006020830152604082019050919050565b6000614195601083614f76565b91507f5061757361626c653a20706175736564000000000000000000000000000000006000830152602082019050919050565b60006141d5603883614f76565b91507f4552433732313a20617070726f76652063616c6c6572206973206e6f74206f7760008301527f6e6572206e6f7220617070726f76656420666f7220616c6c00000000000000006020830152604082019050919050565b600061423b602a83614f76565b91507f4552433732313a2062616c616e636520717565727920666f7220746865207a6560008301527f726f2061646472657373000000000000000000000000000000000000000000006020830152604082019050919050565b60006142a1602983614f76565b91507f4552433732313a206f776e657220717565727920666f72206e6f6e657869737460008301527f656e7420746f6b656e00000000000000000000000000000000000000000000006020830152604082019050919050565b6000614307602e83614f76565b91507f45524337323155524953746f726167653a2055524920736574206f66206e6f6e60008301527f6578697374656e7420746f6b656e0000000000000000000000000000000000006020830152604082019050919050565b600061436d602083614f76565b91507f4552433732313a206d696e7420746f20746865207a65726f20616464726573736000830152602082019050919050565b60006143ad603183614f76565b91507f45524337323155524953746f726167653a2055524920717565727920666f722060008301527f6e6f6e6578697374656e7420746f6b656e0000000000000000000000000000006020830152604082019050919050565b6000614413601183614f76565b91507f455243323938313a20746f6f20686967680000000000000000000000000000006000830152602082019050919050565b6000614453602c83614f76565b91507f4552433732313a20617070726f76656420717565727920666f72206e6f6e657860008301527f697374656e7420746f6b656e00000000000000000000000000000000000000006020830152604082019050919050565b60006144b9603083614f76565b91507f45524337323157697468526f79616c74793a206d7573742068617665206d696e60008301527f74657220726f6c6520746f206d696e74000000000000000000000000000000006020830152604082019050919050565b600061451f602983614f76565b91507f4552433732313a207472616e73666572206f6620746f6b656e2074686174206960008301527f73206e6f74206f776e00000000000000000000000000000000000000000000006020830152604082019050919050565b6000614585602f83614f76565b91507f4552433732314d657461646174613a2055524920717565727920666f72206e6f60008301527f6e6578697374656e7420746f6b656e00000000000000000000000000000000006020830152604082019050919050565b60006145eb602183614f76565b91507f4552433732313a20617070726f76616c20746f2063757272656e74206f776e6560008301527f72000000000000000000000000000000000000000000000000000000000000006020830152604082019050919050565b6000614651603783614f76565b91507f45524337323157697468526f79616c74793a206d7573742068617665206d696e60008301527f74657220726f6c6520746f2073657420726f79616c74790000000000000000006020830152604082019050919050565b60006146b7602383614f76565b91507f45524337323157697468526f79616c74793a20696e76616c696420746f6b656e60008301527f20696400000000000000000000000000000000000000000000000000000000006020830152604082019050919050565b600061471d603183614f76565b91507f4552433732313a207472616e736665722063616c6c6572206973206e6f74206f60008301527f776e6572206e6f7220617070726f7665640000000000000000000000000000006020830152604082019050919050565b6000614783602c83614f76565b91507f455243373231456e756d657261626c653a20676c6f62616c20696e646578206f60008301527f7574206f6620626f756e647300000000000000000000000000000000000000006020830152604082019050919050565b60006147e9601783614f87565b91507f416363657373436f6e74726f6c3a206163636f756e74200000000000000000006000830152601782019050919050565b6000614829603183614f76565b91507f45524337323157697468526f79616c74793a206d75737420686176652070617560008301527f73657220726f6c6520746f2070617573650000000000000000000000000000006020830152604082019050919050565b600061488f603083614f76565b91507f4552433732314275726e61626c653a2063616c6c6572206973206e6f74206f7760008301527f6e6572206e6f7220617070726f766564000000000000000000000000000000006020830152604082019050919050565b60006148f5601183614f87565b91507f206973206d697373696e6720726f6c65200000000000000000000000000000006000830152601182019050919050565b6000614935602f83614f76565b91507f416363657373436f6e74726f6c3a2063616e206f6e6c792072656e6f756e636560008301527f20726f6c657320666f722073656c6600000000000000000000000000000000006020830152604082019050919050565b6149978161511b565b82525050565b60006149a98285613df3565b91506149b58284613df3565b91508190509392505050565b60006149cc826147dc565b91506149d88285613df3565b91506149e3826148e8565b91506149ef8284613df3565b91508190509392505050565b6000602082019050614a106000830184613d54565b92915050565b6000608082019050614a2b6000830187613d54565b614a386020830186613d54565b614a45604083018561498e565b8181036060830152614a578184613d81565b905095945050505050565b6000604082019050614a776000830185613d54565b614a84602083018461498e565b9392505050565b6000602082019050614aa06000830184613d63565b92915050565b6000602082019050614abb6000830184613d72565b92915050565b60006020820190508181036000830152614adb8184613dba565b905092915050565b60006020820190508181036000830152614afc81613e24565b9050919050565b60006020820190508181036000830152614b1c81613e64565b9050919050565b60006020820190508181036000830152614b3c81613eca565b9050919050565b60006020820190508181036000830152614b5c81613f0a565b9050919050565b60006020820190508181036000830152614b7c81613f70565b9050919050565b60006020820190508181036000830152614b9c81613fd6565b9050919050565b60006020820190508181036000830152614bbc81614016565b9050919050565b60006020820190508181036000830152614bdc8161407c565b9050919050565b60006020820190508181036000830152614bfc816140bc565b9050919050565b60006020820190508181036000830152614c1c81614122565b9050919050565b60006020820190508181036000830152614c3c81614188565b9050919050565b60006020820190508181036000830152614c5c816141c8565b9050919050565b60006020820190508181036000830152614c7c8161422e565b9050919050565b60006020820190508181036000830152614c9c81614294565b9050919050565b60006020820190508181036000830152614cbc816142fa565b9050919050565b60006020820190508181036000830152614cdc81614360565b9050919050565b60006020820190508181036000830152614cfc816143a0565b9050919050565b60006020820190508181036000830152614d1c81614406565b9050919050565b60006020820190508181036000830152614d3c81614446565b9050919050565b60006020820190508181036000830152614d5c816144ac565b9050919050565b60006020820190508181036000830152614d7c81614512565b9050919050565b60006020820190508181036000830152614d9c81614578565b9050919050565b60006020820190508181036000830152614dbc816145de565b9050919050565b60006020820190508181036000830152614ddc81614644565b9050919050565b60006020820190508181036000830152614dfc816146aa565b9050919050565b60006020820190508181036000830152614e1c81614710565b9050919050565b60006020820190508181036000830152614e3c81614776565b9050919050565b60006020820190508181036000830152614e5c8161481c565b9050919050565b60006020820190508181036000830152614e7c81614882565b9050919050565b60006020820190508181036000830152614e9c81614928565b9050919050565b6000602082019050614eb8600083018461498e565b92915050565b6000604051905081810181811067ffffffffffffffff82111715614ee557614ee46152ca565b5b8060405250919050565b600067ffffffffffffffff821115614f0a57614f096152ca565b5b601f19601f8301169050602081019050919050565b600067ffffffffffffffff821115614f3a57614f396152ca565b5b601f19601f8301169050602081019050919050565b600081519050919050565b600081519050919050565b600082825260208201905092915050565b600082825260208201905092915050565b600081905092915050565b6000614f9d8261511b565b9150614fa88361511b565b9250827fffffffffffffffffffffffffffffffffffffffffffffffffffffffffffffffff03821115614fdd57614fdc61523d565b5b828201905092915050565b6000614ff38261511b565b9150614ffe8361511b565b92508261500e5761500d61526c565b5b828204905092915050565b60006150248261511b565b915061502f8361511b565b9250817fffffffffffffffffffffffffffffffffffffffffffffffffffffffffffffffff04831182151516156150685761506761523d565b5b828202905092915050565b600061507e8261511b565b91506150898361511b565b92508282101561509c5761509b61523d565b5b828203905092915050565b60006150b2826150fb565b9050919050565b60008115159050919050565b6000819050919050565b60007fffffffff0000000000000000000000000000000000000000000000000000000082169050919050565b600073ffffffffffffffffffffffffffffffffffffffff82169050919050565b6000819050919050565b82818337600083830152505050565b60005b83811015615152578082015181840152602081019050615137565b83811115615161576000848401525b50505050565b60006151728261511b565b915060008214156151865761518561523d565b5b600182039050919050565b600060028204905060018216806151a957607f821691505b602082108114156151bd576151bc61529b565b5b50919050565b60006151ce8261511b565b91507fffffffffffffffffffffffffffffffffffffffffffffffffffffffffffffffff8214156152015761520061523d565b5b600182019050919050565b60006152178261511b565b91506152228361511b565b9250826152325761523161526c565b5b828206905092915050565b7f4e487b7100000000000000000000000000000000000000000000000000000000600052601160045260246000fd5b7f4e487b7100000000000000000000000000000000000000000000000000000000600052601260045260246000fd5b7f4e487b7100000000000000000000000000000000000000000000000000000000600052602260045260246000fd5b7f4e487b7100000000000000000000000000000000000000000000000000000000600052604160045260246000fd5b6000601f19601f8301169050919050565b615313816150a7565b811461531e57600080fd5b50565b61532a816150b9565b811461533557600080fd5b50565b615341816150c5565b811461534c57600080fd5b50565b615358816150cf565b811461536357600080fd5b50565b61536f8161511b565b811461537a57600080fd5b5056fea26469706673582212204d9f335807709db99ad7845fffdbe972fee029053ab3cb9603f3a864a9fb5ca964736f6c63430008000033",
  "linkReferences": {},
  "deployedLinkReferences": {}
}